:1000000002231FE4FDFCC3ED9FEC9E50147BD87AC5
:1000100004EB1B70011AEB4A70F70DBD00010C8058
:02002000E522D7
:100023000229B7AB05C285C291EF4420FF122B070B
:10003300AF03122B07D291220229487B019002D0F1
:100043007405F07F109002CDEBF0A3EAF0A3E9F082
:10005300C285C291EF4420801D9002D0E0FF14F0CE
:10006300EF60199002CDE0FBA3E475F00112069056
:0F007300A9F0FA120563FF122B0780DDD291224C
:10008300022108020458E86480F8E933E833601178
:100093000460F0ED33EC337009E8FCE9FDEAFEEBB4
:1000A300FF220460DED3EB9FEA9EE99DE8C2E78C62
:1000B300F0C2F795F0400CE8CCF8E9CDF9EACEFAB6
:1000C300EBCFFB12042385D0F05804700320D5B383
:1000D300E80470075002B2D502046292D5EC0460C2
:1000E300F7E4CCC0E0C398F8603B94186008400D77
:1000F300D0E0FB02043AE4FBFAC9FC8028E830E4D0
:1001030006E4C9FBE4CAFCE830E305E4C9CACBFC56
:10011300E854076010F8C3E913F9EA13FAEB13FB89
:10012300EC13FCD8F130F52FC3E49CFCEF9BFFEEFE
:100133009AFEED99FDD0E0FBEF4E4D4C701222DBA1
:100143000302045FEC2CFCEF33FFEE33FEED33FDD3
:10015300ED30E7EB02043AEF2BFFEE3AFEED39FD0B
:10016300D0E0FB50130BBB0003020462ED13FDEE62
:1001730013FEEF13FFEC13FC02043AEC4D6011E89D
:10018300497017ED33EC3304600DE4FCFFFEFD22F0
:10019300E933E8330470F802045812042358046066
:1001A30009E4CC2481500628500902046228400344
:1001B30002045FC0E0EB4A7044B98006D0E0FB0262
:1001C300044EEF4E701CBD8008EBFFEAFEE9FD8094
:1001D300EBE98DF0A4FEE5F0020267E9CDF9EAFE52
:1001E300EBFFEF89F0A4FCE5F0CE89F0A42EFFE449
:1001F30035F0CD89F0A42DFEE435F08067EF4E7025
:1002030005BD80D780C3EF8BF0A4ACF0EE8BF0A4D8
:100213002CFCE435F0F8EF8AF0A42CE5F038FCE48C
:1002230033CB8DF0A42CFCE5F03BF8EE8AF0A42C44
:10023300FCE5F038F8E433CF89F0A42CFCE5F03882
:10024300CF3400CE89F0A42FFFE5F03EFEE433C99E
:100253008DF0A42EFEE5F039CD8AF0A42FFFE5F052
:100263003EFEE43DFD33D0E0FB50070BBB000F0225
:100273000462EC2CFCEF33FFEE33FEED33FD02049E
:100283003A020462EC5D046005E859047003020459
:1002930058120423580460F6EC4860F2EC7004FD35
:1002A300FEFF22C860DB2481C85009C39860025056
:1002B3000602045F9850CAF582E9294B4A7005ABE0
:1002C3008202044E75F0007C1A7880C3EF9BEE9A8D
:1002D300ED99400DC3EF9BFFEE9AFEED99FDE842C9
:1002E300F0DC23ACF0D0E0FFD0E0FED0E0FDAB8249
:1002F30020E7101BEB60BAEC2CFCEF33FFEE33FE70
:10030300ED33FD02043AE803F830E705C0F075F079
:1003130000EF2FFFEE33FEED33FD40B830E7C28030
:10032300AA74F8CC6480CCC86480C8F58204604F9A
:10033300C3EB9FF5F0EA9E42F0E99D42F0E89C454D
:10034300F0603C501DE5825FFFE582D313CB5BCBAE
:10035300F42B5582FB50280ABA002409B90020085F
:10036300801DE5825BFBE582D313CF5FCFF4C3131C
:100373002F5582FF50090EBE00050DBD00010CC3B1
:10038300EB9FF5F0EA9E42F0E99D42F0E89C45F0D0
:100393006007CC4820E701B3EC22ED33EC33600A6D
:1003A300047003BD8004ECB2E7FC2275F020800EDC
:1003B30075F010800575F0087D007E007F00339294
:1003C300D530D5031206DEEC334010EF33FFEE33A6
:1003D300FEED33FDEC33FCD5F0ED22E5F0247EA2F7
:1003E300D513CC92E7CDCEFF22EDD2E7CD33EC335C
:1003F30092D524814006E4FFFEFDFC22FCE4CFCE2F
:10040300CDCC24E0501174FF80EDC3CC13CCCD13BD
:10041300CDCE13CECF13CF0470F030D5DE0206DE7F
:10042300E9D2E7C933E833F892D5EDD2E7CD33EC1F
:1004330033FC5002B2D522EC30E7100FBF000C0E94
:10044300BE00080DBD00040BEB6014A2D5EB13FC3A
:10045300ED92E7FD2274FFFCFDFEFF22E480F8A28B
:10046300D574FF13FC7D80E480EFE709F608DFFA1B
:100473008046E709F208DFFA803E88828C83E70929
:10048300F0A3DFFA8032E309F608DFFA8078E309A4
:10049300F208DFFA807088828C83E309F0A3DFFA25
:1004A300806489828A83E0A3F608DFFA8058898210
:1004B3008A83E0A3F208DFFA804C80D280FA80C6F8
:1004C30080D4806980F28033801080A680EA809A8D
:1004D30080A880DA80E280CA803389828A83ECFA3A
:1004E300E493A3C8C582C8CCC583CCF0A3C8C58296
:1004F300C8CCC583CCDFE9DEE7800D89828A83E43B
:1005030093A3F608DFF9ECFAA9F0EDFB2289828ABE
:1005130083ECFAE0A3C8C582C8CCC583CCF0A3C8DA
:10052300C582C8CCC583CCDFEADEE880DB89828A5A
:1005330083E493A3F208DFF980CC88F0EF60010E27
:100543004E60C388F0ED2402B4040050B9F582EB89
:100553002402B4040050AF23234582239004BD73C7
:10056300BB010689828A83E0225002E722BBFE0296
:10057300E32289828A83E49322BB010CE58229F575
:1005830082E5833AF583E0225006E92582F8E622E4
:10059300BBFE06E92582F8E222E58229F582E5839E
:1005A3003AF583E49322BB010689828A83F02250C1
:1005B30002F722BBFE01F322F8BB010DE58229F508
:1005C30082E5833AF583E8F0225006E92582C8F6EE
:1005D30022BBFE05E92582C8F222EF8DF0A4A8F024
:1005E300CF8CF0A428CE8DF0A42EFE22BC000BBE2F
:1005F3000029EF8DF084FFADF022E4CCF875F0080C
:10060300EF2FFFEE33FEEC33FCEE9DEC984005FC40
:10061300EE9DFE0FD5F0E9E4CEFD22EDF8F5F0EE08
:100623008420D21CFEADF075F008EF2FFFED33FDF3
:100633004007985006D5F0F222C398FD0FD5F0EA93
:1006430022C2D5EC30E709B2D5E4C39DFDE49CFC9E
:10065300EE30E715B2D5E4C39FFFE49EFE1205EF2B
:10066300C3E49DFDE49CFC80031205EF30D507C372
:10067300E49FFFE49EFE22C5F0F8A3E028F0C5F056
:10068300F8E582158270021583E038F022A3F8E0C2
:10069300C5F025F0F0E582158270021583E0C838B5
:1006A300F0E822BB0110E58229F582E5833AF58360
:1006B300E0F5F0A3E0225009E92582F886F008E688
:1006C30022BBFE0AE92582F8E2F5F008E222E5837F
:1006D3002AF583E993F5F0A3E99322C3E49FFFE4AA
:1006E3009EFEE49DFDE49CFC22ECF0A3EDF0A3EE62
:1006F300F0A3EFF022A8828583F0D083D082120783
:100703000F12070F12070F12070FE473E493A3C529
:1007130083C5F0C583C8C582C8F0A3C583C5F0C52A
:1007230083C8C582C822A42582F582E5F03583F506
:1007330083229002B77480F02006030208C5C20624
:100743009002D7E0FB7A009002BC7402F0A3740815
:10075300F0A37401F0E4A3F07D077F02121AD8908E
:1007630002D8E0FB7A009002BC7402F0A37408F094
:10077300A37401F0E4A3F07D077F1A121AD83002A4
:10078300089002DFE06428606F9002B7E0FF14F086
:10079300EF6063E4FFEFC394057480948050487E58
:1007A30001EEC3948074809480503975F080EFA477
:1007B3002400F582E5F03400F583E5822EF582E42A
:1007C3003583F583E0FD75F080EFA424FFF582E522
:1007D300F034FFF583E5822EF582E43583F583ED6E
:1007E300F00E80BD0F80AE9002B7E0540F709A7F79
:1007F300021228568093C2029002DFE06428700739
:10080300D2029002D104F09002D1E024FE602D14B4
:10081300606E240260030208C5121EA2E49002BCAB
:10082300F0A3F0A3F07B04FA7D077F32121DB9E435
:100833009002BCF0A3F0A3F07B03802112246BE4AD
:100843009002BCF0A3F0A3F07B03FA7D077F321282
:100853001DB9E49002BCF0A3F0A3F07B04FA7D077A
:100863007F3C121DB9E49002BCF0A3F0A3F07B031C
:10087300FA7D077F46121DB99002D1E004F0804251
:100883001212DEE49002BCF0A3F0A3F07B03FA7D26
:10089300077F32121DB9E49002BCF0A3F0A3F07BF2
:1008A30003FA7D077F3C121DB9E49002BCF0A3F06C
:1008B300A3F07B04FA7D077F46121DB99002D17421
:1008C30001F09002D1E0640160030209639002D950
:1008D300E075F00A84FB7A00E49002BCF0A3F0A375
:1008E300F07D037F591218639002D9E075F00A84F2
:1008F300E5F0FB7A00E49002BCF0A3F0A3F07D03E3
:100903007F691218639002D8E075F00A84E5F0FB62
:100913007A009002BC7401F0E4A3F0A3F07D037F9E
:10092300401218639002D9E075F00A84FB7A0090B4
:1009330002BC7401F0E4A3F0A3F07D037F59121805
:10094300639002D9E075F00A84E5F0FB7A00900227
:10095300BC7401F0E4A3F0A3F07D037F69020A53A2
:100963009002D1E064026003020A569002E9E07546
:10097300F00A84FB7A00E49002BCF0A3F0A3F07DBC
:10098300037F051218639002E9E075F00A84E5F02D
:10099300FB7A00E49002BCF0A3F0A3F07D037F1583
:1009A3001218639002E9E075F00A84FB7A00900262
:1009B300BC7401F0E4A3F0A3F07D037F0512186378
:1009C3009002E9E075F00A84E5F0FB7A009002BC3E
:1009D3007401F0E4A3F0A3F07D037F151218639074
:1009E30002E7E075F00A84FB7A00E49002BCF0A30E
:1009F300F0A3F07D037F401218639002E7E075F0E7
:100A03000A84E5F0FB7A00E49002BCF0A3F0A3F0C3
:100A13007D037F501218639002E7E075F00A84FBB0
:100A23007A009002BC7401F0E4A3F0A3F07D037F8D
:100A3300401218639002E7E075F00A84E5F0FB7A50
:100A4300009002BC7401F0E4A3F0A3F07D037F5097
:100A530012186322C101C10060320280000000004D
:100A63000000000000000000000000000000000083
:100A73000000000000000000000000000000000073
:100A8300000000000000000000000000000042021F
:100A9300B200004202B400004102F0004102F20041
:100AA3004102F1004402EC00000000C10662800034
:100AB3000000000000000000000000000000000033
:100AC3000000000000000000000000000000000023
:100AD3000000000000000000000000000000000013
:100AE3000000000000000000000000000000000003
:100D330000C1074102DE004102DF004702E0065A1C
:100D430000000400004102DD00C1034102D103C1E0
:100D53000200E49002BBF0A3F0A3F0A3F0FBFA902F
:100D630002BB7413F0A37456F053E8F043B38053FB
:100D7300B47FE4F5F643F60143E1019002BBE0FCE6
:100D8300A3E0FDE41203B31225039002BDEEF0A32A
:100D9300EFF053E8F043E80143AC0153ADFEE4F553
:100DA300F643F60243E1019002BBE0FCA3E0FDE45D
:100DB3001203B3122503AA06AB0753E1FE9002B751
:100DC300E4F0A3741EF09002BCE024E2FE9002BBA8
:100DD300E034FF9002B9F0A3CEF0C39002BEE094DA
:100DE3001E9002BDE0940050209002BAE09B900256
:100DF300B9E09A40149002B8E09B9002B7E09A5091
:100E0300089002E374F0020F3E9002B9E0FEA3E003
:100E1300FFD39002BEE09F9002BDE09E4021D3909D
:100E230002BAE09B9002B9E09A40149002B8E09BAA
:100E33009002B7E09A50089002E3740F020F3E90BD
:100E430002B9E0FEA3E0FFC39BEE9A50249002BDDB
:100E5300E0FCA3E0FDC39FEC9E50169002B7E0FEBA
:100E6300A3E0FFED9FEC9E40089002E374AA020FFB
:100E73003ED39002B8E09B9002B7E09A402B9002D9
:100E8300B9E0FEA3E0FF9002BDE0FCA3E0FD9FEC10
:100E93009E50169002B7E0FEA3E0FFED9FEC9E404C
:100EA300089002E37455020F3EC39002BAE09B9090
:100EB30002B9E09A501C9002B7E0FEA3E0FFC39092
:100EC30002BEE09F9002BDE09E50079002E374FAD9
:100ED30080699002B9E0FEA3E0FFC39BEE9A501332
:100EE3009002BEE09F9002BDE09E40079002E37433
:100EF300AF80489002B7E0FEA3E0FFD39BEE9A4099
:100F0300139002BEE09F9002BDE09E50079002E363
:100F130074F58027D39002B8E09B9002B7E09A4023
:100F2300229002B9E0FEA3E0FFD39002BEE09F90BF
:100F330002BDE09E400D9002E3745FF0E49002DD99
:100F4300F08015E49002E3F09002DDE0C3940874AE
:100F53008094805003E004F09002DDE06408D370D5
:100F630001C322E49002BCF0A3F0A3F07B04FAFDDA
:100F73007F701211391219AC7F587E0212000312CE
:100F83002B841215C87BFF7A4179969002BD7408B1
:100F9300F0C209E4A3F07D047F0F1226C27F08127A
:100FA3002599E4FB7D047F04122ABEE49002BCF081
:100FB300A3F0A3F07B03FA7D077F32121DB9E490FF
:100FC30002BCF0A3F0A3F07B04FA7D077F3C121D63
:100FD300B9E49002BCF0A3F0A3F07B03FA7D077F92
:100FE30046121DB99002D7E0FB7A009002BC74024E
:100FF300F0A37408F0A37401F0E4A3F07D077F026B
:10100300121AD89002CA7408F0E4A3F07B3A7D0761
:101013007F12121BEB9002D8E0FB7A009002BC74A3
:1010230002F0A37408F0A37401F0E4A3F07D077F3A
:101033001A121AD87B017A0279E71220429002E948
:10104300E0FB7A009002BC7402F0A37408F0A3746E
:1010530001F0E4A3F07D077F56121AD89002CA74F8
:1010630008F0E4A3F07B2E7D077F66121BEB900252
:10107300EAE0FB7A009002BC7401F0A37408F0E488
:10108300A3F0A3F07D077F6D121AD8E49002BCF0A1
:10109300A3F0A3F07B05FA7D077F76121DB99002BA
:1010A300D2E0FB9002BB7408F0E4A3F0A3F07D024E
:1010B3007F09121F789002D2E004FB9002BB7408F0
:1010C300F0E4A3F0A3F07D027F31121F789002D2E7
:1010D300E02402FB9002BB7408F0E4A3F0A3F07DCC
:1010E300027F59121F789002DAE0FB7A009002BC6B
:1010F3007401F0E4A3F0A3F07D037F0812171A90A4
:1011030002DBE0FB7A009002BC7401F0E4A3F0A3DD
:10111300F07D037F3012171A9002DCE0FB7A009017
:1011230002BC7401F0E4A3F0A3F07D037F5812170F
:101133001A7F020228569002B9EDF09002B8EFF040
:10114300FCAE02EB7805C333CE33CED8F9FF900261
:10115300C0EEF0A3EFF0ECFF7E00C37480948050E8
:10116300030212DDD3EF9470748094804003021263
:10117300DD9002BCE0600302121B9002B8E0FFA303
:10118300E0FD122D59E49002BFF09002BFE0C3943A
:1011930010748094805030A3E0FEA3E02494F58281
:1011A300742F3EF583E493FF9002BDA3E0FD122B61
:1011B300D09002C1E004F070069002C0E004F09009
:1011C30002BFE004F080C39002B8E0FFA3E004FD97
:1011D300122D59E49002BFF09002BFE0C394107443
:1011E30080948040030212DDA3E0FEA3E02494F583
:1011F30082742F3EF583E493FF9002BDA3E0FD12BA
:101203002BD09002C1E004F070069002C0E004F01D
:101213009002BFE004F080C0E49002BFF09002BFF0
:10122300E0FFC3941074809480504EA3E0FCA3E0CD
:101233002494F582742F3CF583E493FEEFFD900232
:10124300B8E02DFDE433FCA3E075F080A42400F5A1
:1012530082E5F034FFF583E5822DF582E5833CF5E5
:1012630083EEF09002C1E004F070069002C0E00447
:10127300F09002BFE004F080A4E49002BFF090027B
:10128300BFE0FFC3941074809480504EA3E0FCA38E
:10129300E02494F582742F3CF583E493FEEFFD90F4
:1012A30002B8E02DFDE433FCA3E075F080A42480B4
:1012B300F582E5F034FFF583E5822DF582E5833C85
:1012C300F583EEF09002C1E004F070069002C0E0F6
:1012D30004F09002BFE004F080A4229002D2E0FB6D
:1012E3009002BB7408F0E4A3F0A3F07D027F121216
:1012F3001F789002D3E0FB7A009002BC7402F0A343
:101303007408F0A37401F0A3F0E4A3F07D027F302E
:101313001214707BFF7A4179A89002C37408F0A37A
:101323007401F0E4A3F07D027F3C121CCE9002D442
:10133300E0FB7A009002BC7402F0A37408F0A3747B
:1013430001F0A3F0E4A3F07D027F421214707BFF4F
:101353007A4179A89002C37408F0A37401F0E4A35E
:10136300F07D027F4E121CCE9002D5E0FAA3E0FB83
:101373009002BC7404F0A37408F0A37401F0A3F00A
:10138300E4A3F07D027F541214709002D7E075F04D
:101393000A84FB7A009002BC7401F0E4A3F0A3F08A
:1013A3007D037F071218639002D7E075F00A84E586
:1013B300F0FB7A009002BC7401F0E4A3F0A3F07D8B
:1013C300037F171218639002BC7401F0E4A3F0A327
:1013D300F07B0AFA7D037F271218639002D8E07529
:1013E300F00A84FB7A009002BC7401F0E4A3F0A33A
:1013F300F07D037F301218639002D8E075F00A8401
:10140300E5F0FB7A009002BC7401F0E4A3F0A3F0D2
:101413007D037F401218639002BC7401F0E4A3F0D3
:10142300A3F07B0AFA7D037F501218639002D9E080
:1014330075F00A84FB7A009002BC7401F0E4A3F017
:10144300A3F07D037F591218639002D9E075F00A67
:1014530084E5F0FB7A009002BC7401F0E4A3F0A3EE
:10146300F07D037F691218637F020228569002B849
:10147300EFF0A3EDF0A3EAF0A3EBF0E49002C1F0E8
:101483009002C3F09002C2F09002BCE0FF9002C24F
:10149300E0FEC39F40030215C7C3EF9E14FD7F0AFE
:1014A300122DB79002BAE0FCA3E0FDCFCDCFCECC96
:1014B300CE1205EF7C007D0A1205EF9002C1EDF01C
:1014C3009002C3E070369002BCE014FF9002C2E0C9
:1014D300C39F50289002C1E0FF3395E0FEEF4E70AA
:1014E300159002BEE06007E49002C1F0800E900206
:1014F300C174F0F080069002C37401F09002BFE063
:10150300704C9002B8E0FF7E00C374809480500357
:101513000215C7D3EF94787480948040030215C7F3
:101523009002C2E075F008A4FF9002B8E02FFFA379
:10153300E0FD9002C1E02430FB9002BDE09002CABE
:10154300F09002C0E09002CBF0121BEB8066900299
:10155300BDE064087065F9E9C39406748094805013
:10156300539002C1E0FF3395E0FE9039DE75F0063B
:10157300EF120729EE75F006A42583F583E582298A
:10158300F582E43583F583E493FFE9FD9002B8E047
:101593002DFDE433FCA3E075F080A42400F582E57F
:1015A300F034FFF583E5822DF582E5833CF583EF87
:1015B300F00980A39002B8E02406F09002C2E00490
:1015C300F002148B229002B7E4F0A3F0A3F0200002
:1015D3000302170BC2009002B2F0A3F07B017A0260
:1015E30079809002B704F0A3EAF0A3E9F09002BD7A
:1015F30074FFF0A37441F0A374AAF0A3E4F0A374FE
:1016030009F0122271EF700302170B9002B7E0FB8F
:10161300A3E0FAA3E0F990001912057C9002D7F039
:1016230090001A12057C9002D8F090001B12057CE2
:101633009002D9F090001812057C9002D2F090002D
:10164300161206A6ACF0ECFFEF9002D3F090001454
:101653001206A6FDACF0ECFFEF9002D4F09000125E
:101663001206A6FAE5F0FFEAFE9002D5EEF0A3EF2C
:10167300F0A3E0FF7E00C39405748094804015D3EB
:10168300EF941174809480500B9002B7A3E0FA900A
:10169300000C803E9002D7E0FF7E00D3941174804B
:1016A30094804009EF94187480948040179002D777
:1016B300E0FF7E00C374809480401EEF9405748025
:1016C300948050159002B7E0FBA3E0FAA3E0F990F1
:1016D300000D12057C9002DAF09002B7E0FBA3E064
:1016E300FAA3E0F990000E12057C9002DBF0900063
:1016F3001012057C9002DCF09002D8E09002F1F029
:101703009002D9E09002F2F030030BC2037BFF7A20
:101713004179B4122E8C229002B9EDF09002B8EF09
:10172300F0FCAE02EB7807C333CE33CED8F9FF908B
:1017330002C1EEF0A3EFF0ECFFC37480948050037A
:10174300021862D3EF94607480948040030218629D
:101753009002BCE0706D9002C0F09002C0E0FEC346
:1017630094047480948040030218629002B8E0FFEE
:10177300A3E02EFD122D59E49002BFF09002BFE0CA
:10178300C394207480948050329002C1E0FEA3E0A1
:101793002454F58274313EF583E493FF9002BDA394
:1017A300E0FD122BD09002C2E004F070069002C15B
:1017B300E004F09002BFE004F080C19002C0E004B6
:1017C300F08097E49002C0F09002C0E0C3940474E8
:1017D3008094804003021862E49002BFF09002BF3D
:1017E300E0C3942074809480506C9002C1E0FEA307
:1017F300E02454F58274313EF583E493FD9002C0F6
:10180300E0FF9002B9E02FFFE433FEEF7807C33324
:10181300CE33CED8F92400F58274FF3EF583C0831E
:10182300C0829002BFE0FF9002B8E02FFFE433FED6
:10183300D082D083E5822FF582E5833EF583EDF0F8
:101843009002C2E004F070069002C1E004F090023E
:10185300BFE004F080879002C0E004F00217CB22BF
:101863009002B9EDF09002B8EFF0FCAE02EB78060F
:10187300C333CE33CED8F9FF9002C1EEF0A3EFF01D
:10188300ECFFC37480948050030219ABD3EF9470C0
:101893007480948040030219AB9002BCE0706D9099
:1018A30002C0F09002C0E0FEC394047480948040B0
:1018B300030219AB9002B8E0FFA3E02EFD122D59ED
:1018C300E49002BFF09002BFE0C394107480948050
:1018D30050329002C1E0FEA3E024D4F58274353E79
:1018E300F583E493FF9002BDA3E0FD122BD0900299
:1018F300C2E004F070069002C1E004F09002BFE081
:1019030004F080C19002C0E004F08097E49002C02C
:10191300F09002C0E0C394047480948040030219E1
:10192300ABE49002BFF09002BFE0C39410748094C4
:1019330080506C9002C1E0FEA3E024D4F58274359C
:101943003EF583E493FD9002C0E0FF9002B9E02FDF
:10195300FFE433FEEF7807C333CE33CED8F9240048
:10196300F58274FF3EF583C083C0829002BFE0FF1F
:101973009002B8E02FFFE433FED082D083E5822FBC
:10198300F582E5833EF583EDF09002C2E004F0704A
:10199300069002C1E004F09002BFE004F08087905B
:1019A30002C0E004F002191422E49002B7F07BFFB6
:1019B3007A2F794C9002BD7408F0C209E4A3F07D3C
:1019C300047F0F1226C29002BC7403F0A37408F0C4
:1019D300E4A3F0A3F0FBFA7D047F4F121AD87BFF38
:1019E3007A2F79549002BD7408F0C209E4A3F07D04
:1019F300047F691226C27D057F191221C37F647E8D
:101A030000120003E49002BCF0A3F0A3F0FBFA7D04
:101A1300067F1D121DB99002BC7403F0A37408F075
:101A2300E4A3F0A3F07B26FA7D047F4F121AD87F3C
:101A3300C87E00120003E49002BCF0A3F0A3F07B85
:101A430001FA7D067F1E121DB99002BC7403F0A338
:101A53007408F0E4A3F0A3F07B27FA7D047F4F1210
:101A63001AD8E49002B7F09002B7E0C3943D7480B3
:101A7300948050607FE67E001200039002B7E0245A
:101A83001FFFE49002BCF0A3F0A3F07B02FA7D06F3
:101A9300121DB99002B7E02428FBE433FA9002BC8C
:101AA3007403F0A37408F0E4A3F0A3F07D047F4F64
:101AB300121AD89002B7E064327011C2009002B2D9
:101AC300F0A3F07BFF7A2F7956122E8C9002B7E0A9
:101AD30004F08093229002B8EFF0A3EDF0A3EAF0B4
:101AE300A3EBF0E49002C0F09002C2F09002C1F0C8
:101AF3009002BCE0FF9002C1E0FEC39F4003021BC3
:101B0300D7C3EF9E14FD7F0A122DB79002BAE0FCF3
:101B1300A3E0FDCFCDCFCECCCE1205EF7C007D0A66
:101B23001205EF9002C0EDF09002C2E070719002D6
:101B3300BCE014FF9002C1E0FEC39F50629002C05C
:101B4300E0FD3395E0FCED4C704F9002BEE0602366
:101B5300EE75F008A4FF9002B8E02FFFA3E0FD901C
:101B630002BDE09002CAF09002BFE09002CBF07B8E
:101B73003080559002C1E075F008A4FF9002B8E0F0
:101B83002FFFA3E0FD9002BDE09002CAF09002BFD8
:101B9300E09002CBF07B20802F9002C27401F09082
:101BA30002C1E075F008A4FF9002B8E02FFFA3E0A4
:101BB300FD9002C0E02430FB9002BDE09002CAF029
:101BC3009002BFE09002CBF0121BEB9002C1E00445
:101BD300F0021AF3222430FB900000E09002CAF0D6
:101BE300900000E09002CBF09002C8EDF09002C7A5
:101BF300EFF0E49002CCF0FED3EF947874809480FD
:101C03004003021CCD9002C8E07C00C3940874809A
:101C130094804003021CCDC3748094805003021C43
:101C2300CD748094805003021CCDEB24E09002CC51
:101C3300F09002CAE064107053122D51E4F9E9C325
:101C430094087480948050169002CCE075F010A430
:101C530024A6F582E5F0343B122BBC0980E0900208
:101C6300C7E0FFA3E004FD122D59E4F9E9C394088A
:101C73007480948050549002CCE075F010A424AE8C
:101C8300F582E5F0343B122BBC0980E09002CAE0F8
:101C930064087036122D51E4F9E9C39406748094F4
:101CA3008050169002CCE075F006A4247EF582E500
:101CB300F03439122BBC0980E09002CBE0FDE4FF45
:101CC300122BD0E0FDE4FF122BD0229002BEEFF0E6
:101CD300A3EDF0A3EBF0A3EAF0A3E9F0E49002C6CE
:101CE300F09002C0E0FBA3E0FAA3E0F9120563FB66
:101CF3007003021DB89002C4E070369002BEE0FF8C
:101D03007E00C3748094805003021DB8D3EF94788F
:101D1300748094804003021DB8A3E0FD9002C3E0E9
:101D23009002CAF09002C5E09002CBF0121BEB8048
:101D3300709002C0E0FBA3E0FAA3E0F9120563246C
:101D4300E09002C6F09002C3E06408705BF9E9C357
:101D530094067480948050499002C6E075F006A4FE
:101D6300247EF582E5F03439F583E58229F582E4B2
:101D73003583F583E493FFE9FD9002BEE02DFDE496
:101D830033FCA3E075F080A42400F582E5F034FF72
:101D9300F583E5822DF582E5833CF583EFF0098039
:101DA300AD9002BEE02406F09002C1E475F001128A
:101DB300067A021CE4229002B9EDF09002B8EFF02B
:101DC300FCAE02EB7803C333CE33CED8F9FF9002D7
:101DD300C0EEF0A3EFF0ECFF7E00C374809480505C
:101DE30003021EA1D3EF9478748094804003021EF3
:101DF300A19002BCE070509002B8E0FFA3E0FD1296
:101E03002D59E49002BFF09002BFE0C394087480A0
:101E130094804003021EA1A3E0FEA3E0245CF582AC
:101E2300742F3EF583E493FF9002BDA3E0FD122BD4
:101E3300D09002C1E004F070069002C0E004F0907C
:101E430002BFE004F080C0E4F9E9C394087480940D
:101E530080504B9002C0E0FEA3E0245CF582742F17
:101E63003EF583E493FFE9FD9002B8E02DFDE433F2
:101E7300FCA3E075F080A42400F582E5F034FFF5BF
:101E830083E5822DF582E5833CF583EFF09002C173
:101E9300E004F070069002C0E004F00980AB2290E9
:101EA30002E9E075F00A84FB7A009002BC7401F049
:101EB300E4A3F0A3F07D037F051218639002E9E029
:101EC30075F00A84E5F0FB7A009002BC7401F0E43B
:101ED300A3F0A3F07D037F151218639002BC740175
:101EE300F0E4A3F0A3F07B07FA7D037F2512171A12
:101EF3009002BC7401F0E4A3F0A3F07B05FA7D0229
:101F03007F27121DB99002E7E075F00A84FB7A007F
:101F13009002BC7401F0E4A3F0A3F07D037F4012B0
:101F230018639002E7E075F00A84E5F0FB7A00900D
:101F330002BC7401F0E4A3F0A3F07D037F501218F8
:101F4300639002BC7401F0E4A3F0A3F07B06FA7D76
:101F5300037F6012171A7BFF7A4179A49002C3743E
:101F630008F0A37401F0E4A3F07D027F62121CCE9B
:101F73007F020228569002B8EFF0A3EDF0EBC39472
:101F83000874809480400474F92BFBEB14B40700AD
:101F93004003022041901FA675F003A4C58325F0DA
:101FA300C58373021FBB021FCB021FDB021FEB02A1
:101FB3001FFB02200B02201B9002B8E0FFA3E0FDF1
:101FC3007BFF7A2F7922805E9002B8E0FFA3E0FDC9
:101FD3007BFF7A2F7928804E9002B8E0FFA3E0FDC3
:101FE3007BFF7A2F792E803E9002B8E0FFA3E0FDBD
:101FF3007BFF7A2F7934802E9002B8E0FFA3E0FDB7
:102003007BFF7A2F793A801E9002B8E0FFA3E0FDB0
:102013007BFF7A2F7940800E9002B8E0FFA3E0FDAA
:102023007BFF7A2F79469002BBE09002C3F0A37442
:1020330001F09002BCA3E09002C5F0121CCE2290E6
:1020430002B7EBF0A3EAF0A3E9F053B1F753B2F709
:10205300C2837F627E02122E0ED2837F017E001224
:102063002E0E3083030221053083FD2083FD1228C9
:10207300D99002B7E0FBA3E0FAA3E0F9EF1205A9B8
:102083001228D99002B7E0FBA3E0FAA3E090000185
:102093001228D49002B7E0FBA3E0FAA3E090000279
:1020A3001228D49002B7E0FBA3E0FAA3E0F9900072
:1020B300031228D59002B7E0FBA3E0FAA3E0F9905E
:1020C3000004EF1205BBD28390000112057CFF12BE
:1020D30005632FFFE433FE90000212057C7C002F82
:1020E300FFEC3EFE90000312057C2FFFEC3EFE90BA
:1020F300000412057CB50707ECB506037F01227FB8
:1021030000227F0022C0E0C0F0C083C082C0D0752F
:10211300D000C0079002F0E004F0E0C39414748090
:1021230094804066E4F09002F2E004F09002D9F06B
:102133009002F2E0643C7038F09002D9F09002F122
:10214300E004F09002D8F09002F1E0643C7013F0E8
:102153009002D8F09002D7E004F0E064187003F026
:10216300A3F09002D8E075F01E84E5F07002D2036C
:102173009002F2E0FF75F00384E5F07002D207EFFE
:1021830075F00F84E5F07002D2069002DEE0600283
:1021930014F09002B4E07002A3E060179002B5E07F
:1021A30024FFF09002B4E034FFF0E07002A3E0708B
:1021B30002D200D007D0D0D082D083D0F0D0E0328A
:1021C3009002B8EFF0A3EDF0E4A3F0A3F0122D59C1
:1021D300E49002BAF09002BAE0C3944E7480948003
:1021E300501AA3E090389493FFE4FD122BD0900291
:1021F300BBE004F09002BAE004F080D99002B8E0AA
:10220300FFA3E004FD122D59E49002BAF09002BA44
:10221300E0C3944E74809480501AA3E09038949352
:10222300FFE4FD122BD09002BBE004F09002BAE071
:1022330004F080D99002B8E0FFA3E02402FD122D40
:1022430059E49002BAF09002BAE0C3944E748094B9
:1022530080501AA3E090389493FFE4FD122BD090A2
:1022630002BBE004F09002BAE004F080D9229002AD
:10227300BAEBF0A3EAF0A3E9F0E49002C4F0A3F010
:10228300E49002C2F0A3F09002BAE0FBA3E0FAA349
:10229300E0F99002C4E0FEA3E0FFE92FF9EA3EFA79
:1022A3009002C2E0FEA3E0FF29F9EA3EFA120563B9
:1022B300FD9002BDE0FBA3E0FAA3E0F98F828E83D9
:1022C30012057CB5052D9002C3E02401FF9002C2E4
:1022D300E03400FE9002C0E0B50608A3E0B50703B2
:1022E3007F01229002C3E004F0709C9002C2E004DC
:1022F300F080949002C5E004F070069002C4E004FC
:10230300F09002C0E0FEA3E0FFC39002C5E09F90FF
:1023130002C4E09E50030222837F002275C7AA7580
:10232300C75575FD5A75C7AA75C75575FDA5787F3D
:10233300E4F6D8FD9000007FFF7E03E4F0A3DFFC0A
:10234300DEFA758121022386022CDCE493A3F8E4F0
:1023530093A34003F68001F208DFF48029E493A3FA
:10236300F85407240CC8C333C4540F4420C8834013
:1023730004F456800146F6DFE4800B0102040810E2
:10238300204080900A57E47E019360BCA3FF543F32
:1023930030E509541FFEE493A360010ECF54C0251A
:1023A300E060A840B8E493A3FAE493A3F8E493A30A
:1023B300C8C582C8CAC583CAF0A3C8C582C8CAC56E
:1023C30083CADFE9DEE780BE9002B7EBF0A3EAF051
:1023D300A3E9F0A3EDF0A37470F0EDFF7E00D394B6
:1023E30000748094804076D3EF942074809480505E
:1023F3006CC2857D0EE4FF1200269002B7E0FBA3BA
:10240300E0FAA3E0F9A3E0FD122B4A122EB23084C6
:102413000C9002BBE0F46005E004F080F1C2857F1C
:1024230007122EC49002BBEFF0FD7F07120026E0D7
:10243300543024F0600C24F070109002BB7401F04F
:10244300800D9002BB74FFF08005E49002BBF01294
:102453002F037D0FE4FF120026D2858005E490024E
:10246300BBF09002BBE0FF229002D2E0FB9002BBE4
:102473007408F0E4A3F0A3F07D027F09121F7890A3
:1024830002D2E004FB9002BB7408F0E4A3F0A3F0D3
:102493007D027F31121F789002D2E02402FB90026A
:1024A300BB7408F0E4A3F0A3F07D027F59121F78F8
:1024B3009002DAE0FB7A009002BC7401F0E4A3F02E
:1024C300A3F07D037F0812171A9002DBE0FB7A006A
:1024D3009002BC7401F0E4A3F0A3F07D037F3012FB
:1024E300171A9002DCE0FB7A009002BC7401F0E45E
:1024F300A3F0A3F07D037F5812171A7F0202285618
:102503009002BF1206EC9002C31206F8000000000E
:10251300C2EFD2EE30EFFDACC2E41203B89002C3B7
:102523001206EC9002C3E0F8A3E0F9A3E0FAA3E0FB
:10253300FBC000C001C002C003AFC3EF75F010A41D
:10254300FDACF0EC1203B3D003D002D001D00012E3
:10255300008D9002C31206EC9002BFE0FCA3E0FDE5
:10256300A3E0FEA3E0FFA3E0F8A3E0F9A3E0FAA34E
:10257300E0FB12017EE4FBFA798078451202879032
:1025830002C31206EC9002C3E0FCA3E0FDA3E0FE4D
:10259300A3E0FF0203EC9002B7EFF0640C7010901D
:1025A30002BCF0A3F0A3F07B0CFAFDFF12113990EB
:1025B30002B7E0640D70119002BCF0A3F0A3F07BAE
:1025C3000DFAFD7F501211399002B7E064057011C6
:1025D3009002BCF0A3F0A3F07B05FAFD7F6012111B
:1025E300399002B7E024F8603014602014601014AE
:1025F3007039E49002BCF0A3F0A3F07B0B8025E4D8
:102603009002BCF0A3F0A3F07B0A8018E49002BC14
:10261300F0A3F0A3F07B09800BE49002BCF0A3F0DD
:10262300A3F07B08FAFD7F40121139229002B774A0
:1026330078F078B87C027D017BFF7A4179C47E0013
:102643007F0512053D78BD7C027D017BFF7A4179D0
:10265300C97E007F0512053D122F157F027E0012F1
:102663002D981227D35057C2857D037F031200266E
:102673007A0279B812003E7B017A0279BD9002D0CA
:102683007405F07F0A1200487D017F011200267D48
:10269300017F021200267D207F111200267D187F04
:1026A300041200269002B7E0FD7F051200267D0F7D
:1026B3007F061200267D0FE4FF120026D2852290AA
:1026C30002B8EFF0A3EDF0A3EBF0A3EAF0A3E9F077
:1026D300E49002BFF03009089002B8E09002BFF026
:1026E3009002BAE0FBA3E0FAA3E0F9120563FB60F2
:1026F300589002B8E0C3947874809480402290028A
:10270300BFE09002B8F09002BDE0131313541FFF13
:102713009002B9E02FF0E0C39408748094805029AC
:102723009002B8E0FFA3E0FD9002BDE09002CAF082
:102733009002BE121BE69002B8E02408F09002BBA0
:10274300E475F00112067A809722122EE27FAE1210
:102753002D807FD5122D807F80122D807F20122D1A
:10276300807F02122D807FA8122D807F3F122D8043
:102773007FDA122D807F12122D807FA1122D807F90
:10278300C8122D807F40122D807FD3122D7B7F8135
:10279300122D807FCF122D807FD9122D807FF112D1
:1027A3002D807FDB122D807F20122D807F8D122DB7
:1027B300807F14122D807FA4122D807FA6122D807E
:1027C3007FAF122D80E4FF122BF0E4FDFF022D59A1
:1027D30078C27C027D017BFF7A4179BA7E007F0556
:1027E30012053D78C77C027D017BFF7A4179BF7E6C
:1027F300007F0512053DC2857A0279C212003E7B35
:10280300017A0279C79002D07405F07F10122D0669
:10281300122EB29002C2E0FF9002C7E06F703290B6
:1028230002C3E0FF9002C8E06F70269002C4E0FF8D
:102833009002C9E0B5071A9002C5E0FF9002CAE012
:10284300B5070E9002C6E0FF9002CBE0B50702D3B6
:1028530022C3229002B8EFF0E4A3F0A3F09002BCED
:10286300F09002BBF09002BBE0FFC3940574809428
:1028730080505D9002B8E024B0FEEF2EFF122D8051
:102883007F10122D80E4FF122D80E49002BCF090A3
:1028930002BCE0FFC3948074809480502B9002BBF1
:1028A300E075F080A42400F582E5F03400F583E5BB
:1028B300822FF582E43583F583E0FFE4FD122BD00C
:1028C3009002BCE004F080C79002BBE004F0809566
:1028D30022F9EF1205BBE49002BBF09002BAF0902C
:1028E30002BAE0C394087480948050533083FD7F10
:1028F300017E00122E0E30831F2083FD9002BBE069
:10290300FF9002BAE0FEC374079EFEF874010880CC
:1029130002C333D8FC4F801B9002BBE0FF9002BA86
:10292300E0FEC374079EFEF87401088002C333D827
:10293300FCF45F9002BBF09002BAE004F080A09038
:1029430002BBE0FF22C0E0C0F0C083C082C0D075EC
:10295300D000C000C001C002C003C004C005C0064F
:10296300C007AFECEF642070307F1EFE120003201F
:1029730095249002DFE0700B7428F0D206C292D245
:10298300AC800BC2AC9002DFE4F0D203D29290028F
:10299300DFE09002E2F053ECDFD007D006D005D0A1
:1029A30004D003D002D001D000D0D0D082D083D0C5
:1029B300F0D0E032C0E0C083C082C0D075D000C088
:1029C30004C007E4FF309846122EEFD20120003EE8
:1029D3009002B2E0FCA3E02480F58274023CF5830C
:1029E300EFF09002B3E004F070069002B2E004F05E
:1029F300C39002B3E094329002B2E094004006C266
:102A030001E4F0A3F09002B4E4F0A37402F0D00761
:102A1300D004D0D0D082D083D0E0329002B7EBF094
:102A2300A3EAF0A3E9F0E4A3F0A3F07F01EFC394DA
:102A3300057480948050249002B7E0FBA3E0FAA3CE
:102A4300E0F98F8275830012057CFD9002BBE02DB7
:102A5300F09002BAE03400F00F80D29002BAA3E003
:102A6300F4FF7E009002BAEEF0A3EFF02230074AA3
:102A7300C2077B017A0279E7122042EF603C9002A1
:102A8300E9E0FB7A009002BC7402F0A37408F0A39F
:102A93007401F0E4A3F07D077F56121AD89002EA7E
:102AA300E0FB7A009002BC7401F0A37408F0E4A385
:102AB300F0A3F07D077F6D121AD8229002B8EDF0D3
:102AC300A3EBF09002B7EFF0C394087480948050A6
:102AD30032E4FA9002B8E0FFEAC39F50269002B7AF
:102AE300E024B02A122D75E4F9E9C394807480942C
:102AF30080500D9002B9E0FFE4FD122BD00980E96C
:102B03000A80D022AD07C290E4FCECC39408748021
:102B130094805030ED30E704D2818002C2817F017E
:102B23007E00122EB8ED25E0FDD2907F017E0012CB
:102B33002EB8A280E4334DFDC2907F017E00122E99
:102B4300B80C80C6AF05229002BCEBF0A3EAF0A359
:102B5300E9F0A3EDF0C2917FA0801E9002BFE0FFD9
:102B630014F0EF60199002BCE0FBA3E475F00112CE
:102B73000690A9F0FA120563FF122B0780DDD291AC
:102B8300229002D77405F0E4A3F0A3F09002D204DC
:102B9300F0A3741CF0A37405F0A37407F0A374CD21
:102BA300F09002DA7408F0A3F0A3F09002D8E0905A
:102BB30002F1F0E49002F2F022F583E58229F58236
:102BC300E43583F583E493FF9002CBE0FDED7004DD
:102BD300AC078003EFF4FC122E4350107F78122CC5
:102BE30057122D377F40122D2C122EF9229002B747
:102BF300EFF0E4FAEAC39408748094805022EA2444
:102C0300B0122D75E4F9E9C3948074809480500D5B
:102C13009002B7E0FFE4FD122BD00980E90A80D4CB
:102C2300229002DFE06428702A9002DEE070241212
:102C33000D5550197B017A0279E1122A1E9002E6A2
:102C4300EFF07B017A0279E07D201223CB9002DE44
:102C53007404F022AD07C293122E66E4FBEBC39417
:102C63000874809480501CED5480C41313135401D2
:102C730024FF9294ED25E0FD122E5DC293122E6681
:102C83000B80DA2253B1BF53B2BF53B17F53B27F2C
:102C9300759850438920438780438E1053C4DFC205
:102CA3008E758D97D28E43B71043B810D2AC22A243
:102CB300AF9204C2AF75C7AA75C755439620A20445
:102CC30092AFE4F595A2AF9204C2AF75C7AA75C7D8
:102CD30055439720A20492AF22E49002B6F0122D3E
:102CE300D57F647E00120003D2929002B6741CF06A
:102CF300120F66C206120735122C24122A701215FF
:102D0300C880F2C285C291122B079002D0E0FF1453
:102D1300F0EF60127FFF122B07EF1205A974012950
:102D2300F9E43AFA80E4D29122122C57122D37AFEC
:102D330004122C577D50C293122E66D294122E5D2C
:102D4300309407DDFB122EF9C322C293D3229002E3
:102D5300C7E0FFA3E0FDAA07ED24B0FF122D80EA30
:102D630054F0C4540F4410FF122D80EA540FFF0295
:102D73002D80FF122D807F10122D80E4FFAC0712EF
:102D83002E4350107F78122C57122D37E4FF122D4B
:102D93002C122EF922EF1FAA0670011E4A60147C22
:102DA300047DD8D3ED9400EC940040E9ED1D70F35D
:102DB3001C80F0229002C4EFF0A9057F017E00ADD4
:102DC3000119ED600C9002C4E0FD7C001205DD806A
:102DD300EE22C2AF122F1C122E76122E9F122C87B8
:102DE300122ED5122DF212274D12262FD2AF2253B7
:102DF300B3DF53B4DF43E90143E94043EA2053EB34
:102E0300DF53F7FD43EF02439B0222D28CEF4E6068
:102E130012758CFE758A20308DFDC28DEF1F70ED0B
:102E23001E80EAC28C22E4F5B1F5B2F5B3F5B4F530
:102E3300ACF5AD53B3FB43B40453B1DF53B2DF225C
:102E4300D293D294122E66209402C322C294122EDD
:102E530066309402C322C293D3227F017E00122ED6
:102E63006AD2937F017E00EF4E6007EF1F70F81E5A
:102E730080F52275C40475C63C75C5B043FF025383
:102E8300FEFD439C0243C40822120563FF600C123B
:102E93002F0D740129F9E43AFA80EE225389FD4398
:102EA30089015389F7438E08758CFE758A2022D2D7
:102EB300857F0A7E00EF4E6007EF1F70F81E80F5D6
:102EC30022E4FEC285C291122B077FFF122B07D289
:102ED300912243B38053B47F43AC0153ADFE2243ED
:102EE300B30843B40843B31043B41022E4FF30984B
:102EF300FDAF99C29822C293C294122E5DD294223E
:102F0300C2917FE1122B07D291228F993099FDC292
:102F13009922C285D291C29022122CB2022E294D3F
:102F23006F6E2E2000547565732E005765642E2036
:102F330000546875722E004672692E200053617426
:102F43002E200053756E2E20004C6F6164696E67EE
:102F53000025004745542032003C7EFFFFFFFF7EE3
:102F63003C7EFFFFFFFFFF7E3CFFFFFFFFFFFF7E77
:102F73003C0000183C3C1800003C66C38181C366DA
:102F83003C070507003E41414100000000000000EE
:102F930000F808080808080808080808080808F8D6
:102FA300C01F101010101010101010101010101F50
:102FB30003F808E8E808080808080808080808F8F3
:102FC300C01F101717101010101010101010101F22
:102FD30003F808E8E808E8E808080808080808F813
:102FE300C01F101717101717101010101010101FF4
:102FF30003F808E8E808E8E808E8E808080808F833
:10300300C01F101717101717101717101010101FC5
:1030130003F808E8E808E8E808E8E808E8E808F852
:10302300C01F101717101717101717101717101F97
:103033000300000000204080FC88502000000000B6
:1030430000000000000201001F080502000000004C
:103053000000000000008000C000E000F000F80065
:1030630000000E000F000F000F000F000F000F00F5
:1030730000000000000000000C142444FC4424144D
:103083000C00000000000000000000001F00000012
:10309300000020108844242424242424448810205D
:1030A30000000000000002011919010200000000E5
:1030B30000000000804020202020202040800000CD
:1030C30000000000000002011919010200000000C5
:1030D30000000000000000000000000000000000ED
:1030E30000000000000002011919010200000000A5
:1030F30000000000000000000000000000000000CD
:10310300000000000000000018180000000000008C
:1031130000060A1222FE22120A06008000E000F8CE
:1031230000000000001F0018001E001F001F001FEA
:10313300002010906000804020F00000E01010108C
:103143002006050404000501010701000304050529
:103153000300000000000080800000000030703099
:10316300000000008080000000000000000000005C
:10317300000000006060606103F9FC9EC6C7E7675A
:10318300666E7CF9C3E1E0606000000000000000AF
:103193000000000070FCFE070703030301000000AA
:1031A300000000000103030303078EFEF800000084
:1031B300000000000001030707060606060E0C1CAC
:1031C3001C1C1C0C0E06060606070301000000006B
:1031D300000000000000000000808080C0E06070FC
:1031E300707070E0E0C0808080000000000000008C
:1031F3000000000000FCFE8703030303010000003E
:103203000000000000010303030387FEFC0000002D
:1032130000000000000001030303C3F3C30736F8F3
:10322300FCCE01C7F7C3030303030301000000003F
:103233000000000000000000000000010008070378
:103243000100000001000000000000000000000079
:10325300000000000000000000000000000000006B
:10326300000000000000000000000000000000005B
:103273000000000000C0E07038181818183870E01B
:10328300C0E07038181818183870E0C0000000004B
:10329300000000000003070E1C181818181C0E0766
:1032A30003070E1C181818181C0E07030000000053
:1032B300000000000000000000000000000000000B
:1032C30000000000000000000000000000000000FB
:1032D30000000000000000008080000000000000EB
:1032E300F0F00000000000008080000000000000FB
:1032F30000000000008080808103C7F2F83C1C0EB0
:103303000E0E0E1C3CF8F2C7038180808000000083
:10331300000000000001010181C0E34F1F3C7870F1
:10332300707070783C1F4FE3C08101010100000001
:103333000000000000000000010100000000000088
:103343000F0F00000000000001010000000000005A
:10335300000000000000000000000000000000006A
:10336300000000000000000000000000000000005A
:103373000000000000000044EEEEEEEEEEEEEEEE96
:10338300EEEEEEEEEEEEEEEEEEEE440000000000AA
:103393000000000000000044EEEEEEEEEEEEEEEE76
:1033A300EEEEEEEEEEEEEEEEEEEE4400000000008A
:1033B300000000000000000000000000000000000A
:1033C30000000000000000000000000000000000FA
:1033D30000000000000000000000000080C0C0608A
:1033E300606060C0C08000000000000000000000BA
:1033F3000000000070F8FC0E060303030100000048
:10340300000000000001030303060EFCF870000037
:10341300000000000000010306C6E6F6C60C0C1807
:103423001818180C0CC6F6E6C606030100000000C7
:103433000000000000000000000001010000000C7B
:103443001F1E0C000000010100000000000000002E
:10345300000000000000000000000000000080E009
:103463008000000000000080808080800000000059
:1034730000000000000000000000C060380E0300E0
:10348300030E3860C000002020AAAAFF000000003D
:103493000000000000000000007FC3BDFFFFFEFE30
:1034A300FCF8F8F8FD7F000808AAAAFF0000000056
:1034B30000000000000000000000000103070707F0
:1034C30007070301000000020202020300000000DC
:1034D300000000000000000000000000C060206049
:1034E300C000000000000000000000000000000019
:1034F300000000000000000000000000FF00F000DA
:10350300FF555511000000000000000000000000FE
:1035130000000000000000000078FC863378FF788C
:103523003386FC780000000000000000000000006B
:103533000000000000000000000000010306060672
:103543000301000000000000000000000000000074
:103553000000000000000000000000000000000068
:103563000000000000000000000000000000000058
:10357300000000FE0C38E080000000FE00000000A8
:1035830000C0701E020080F01C061CF080000000CA
:103593000000003F00000001030E183F0000203C24
:1035A30007010000301E030202020202031E300064
:1035B3000000000000000000000000000000000008
:1035C30000000000000000000000000000000000F8
:1035D3000000C0802060E0E0E0E0E0E0602080C028
:1035E30000003F7F3F00000000000000003F7F3FDE
:1035F3000000FEFF7E00808080808080007EFFFED2
:103603000000010002030303030303030302000199
:10361300000000000000000000000000000080E047
:10362300000000000000000000000000003F7F3F9A
:10363300000000000000000000000000007EFFFE0C
:103643000000000000000000000000000000000374
:103653000000002060E0E0E0E0E0E0E0602080C007
:10366300000000000080C0C0C0C0C0C0803F7F3FDA
:103673000000FEFF7E008181818181818000000046
:103683000000010002030303030303030303020017
:103693000000002060E0E0E0E0E0E0E0602080C0C7
:1036A3000000000080C0C0C0C0C0C0C0803F7F3FDA
:1036B300000000000081818181818181007EFFFE05
:1036C30000000002030303030303030303020001D7
:1036D3000000C0800000000000000000000080C067
:1036E30000003F7F3F80C0C0C0C0C0C0803F7F3F5D
:1036F30000000000000001010101010100FEFFFEC6
:1037030000000000000000000000000000000103B2
:103713000000C0802060E0E0E0E0E0E0E060200046
:1037230000003F7F3F80C0C0C0C0C0C08000000019
:10373300000000000080818181818181007EFFFE85
:103743000000000203030303030303030302000156
:103753000000C0802060E0E0E0E0E0E0E060200006
:1037630000003F7F3F80C0C0C0C0C0C080000000D9
:103773000000FEFF7E00818181818181007EFFFE4A
:103783000000010002030303030303030302000118
:10379300000000002060E0E0E0E0E0E0602080C0A6
:1037A300000000000000000000000000003F7F3F19
:1037B30000000000000000000000000000FEFFFE0B
:1037C30000000000000000000000000000000103F2
:1037D3000000C0802060E0E0E0E0E0E0602080C026
:1037E30000003F7F3F80C0C0C0C0C0C0803F7F3F5C
:1037F3000000FEFF7E00818181818181007EFFFECA
:103803000000010002030303030303030302000197
:103813000000C0802060E0E0E0E0E0E0602080C0E5
:1038230000003F7F3F80C0C0C0C0C0C0803F7F3F1B
:10383300000000000080818181818181007EFFFE84
:103843000000000203030303030303030302000155
:1038530000000000C0C0C000000000000000000025
:10386300000000000303030000000000000000004C
:1038730000000000E0E0E0000000000000000000A5
:103883000000000001010100000000000000000032
:10389300000080C0E0E0F070707070707070707045
:1038A3007070707070707070707070707070707015
:1038B3007070707070707070707070707070707005
:1038C30070707070707070707070707070707070F5
:1038D300707070707070707070F0E0E0C080007E87
:1038E300FFFFC30000000000000000000000000014
:1038F30000000000000000000000000000000000C5
:1039030000000000000000000000000000000000B4
:1039130000000000000000000000000000000000A4
:10392300000000000000000000C3FFFF7E00010351
:1039330007070F0E0E0E0E0E0E0E0E0E0E0E0E0EB1
:103943000E0E0E0E0E0E0E0E0E0E0E0E0E0E0E0E94
:103953000E0E0E0E0E0E0E0E0E0E0E0E0E0E0E0E84
:103963000E0E0E0E0E0E0E0E0E0E0E0E0E0E0E0E74
:103973000E0E0E0E0E0F07070301000000000000DD
:10398300000000002F000000000700070000147F64
:10399300147F1400242A7F2A120062640813230070
:1039A300364955225000000503000000001C224147
:1039B30000000041221C000014083E0814000808FF
:1039C3003E0808000000A06000000808080808007E
:1039D3000060600000002010080402003E514945C9
:1039E3003E0000427F4000004261514946002141B0
:1039F300454B31001814127F100027454545390007
:103A03003C4A4949300001710905030036494949D7
:103A13003600064949291E000036360000000056CC
:103A2300360000000814224100001414141414007A
:103A3300004122140800020151090600324959517C
:103A43003E007C1211127C007F49494936003E41F9
:103A5300414122007F4141221C007F4949494100E5
:103A63007F09090901003E4149497A007F08080896
:103A73007F0000417F4100002040413F01007F085B
:103A8300142241007F40404040007F020C027F002F
:103A93007F0408107F003E4141413E007F09090930
:103AA30006003E4151215E007F091929460046491F
:103AB3004949310001017F0101003F4040403F007F
:103AC3001F2040201F003F4038403F00631408146C
:103AD3006300070870080700615149454300007FF0
:103AE30041410000552A552A55000041417F0000FD
:103AF300040201020400404040404000000102046F
:103B030000002054545478007F484444380038441B
:103B130044442000384444487F0038545454180027
:103B2300087E0901020018A4A4A47C007F080404F1
:103B3300780000447D4000004080847D00007F10B9
:103B43002844000000417F4000007C0418047800F2
:103B53007C0804047800384444443800FC242424BA
:103B6300180018242418FC007C0804040800485496
:103B730054542000043F444020003C4040207C003B
:103B83001C2040201C003C4030403C0044281028AE
:103B930044001CA0A0A07C004464544C441414149E
:103BA30014141400000000000000000000000000D6
:103BB300000000000000F8000000000000003330A7
:103BC30000000000100C06100C06000000000000AE
:103BD30000000040C07840C0784000043F04043F28
:103BE300040400007088FC08300000001820FF2146
:103BF3001E0000F008F000E018000000211C031E66
:103C0300211E0000F00888700000001E21232419E3
:103C130027211010160E0000000000000000000015
:103C2300000000000000E018040200000000071874
:103C330020400000020418E00000000040201807A4
:103C4300000000404080F0804040000202010F016C
:103C5300020200000000F0000000000101011F014A
:103C6300010100000000000000000080B0700000AF
:103C7300000000000000000000000000010101013D
:103C830001010100000000000000000030300000CE
:103C930000000000000000806018040060180601A6
:103CA30000000000E010080810E000000F102020C2
:103CB300100F00001010F8000000000020203F202B
:103CC30020000000700808088870000030282422B3
:103CD3002130000030088888483000001820202058
:103CE300110E000000C02010F80000000704242477
:103CF3003F240000F80888880808000019212020C4
:103D0300110E0000E0108888180000000F11202019
:103D1300110E0000380808C83808000000003F00F2
:103D23000000000070880808887000001C22212110
:103D3300221C0000E010080810E0000000312222DD
:103D4300110F00000000C0C0000000000000303070
:103D53000000000000008000000000000080600000
:103D63000000000000804020100800000102040849
:103D7300102000404040404040400004040404043C
:103D830004040000081020408000000020100804F4
:103D9300020100007048080808F0000000003036F7
:103DA300010000C030C828E810E0000718272423CA
:103DB300140B000000C038E0000000203C23020286
:103DC30027382008F8888888700000203F202020AA
:103DD300110E00C0300808080838000718202020FA
:103DE30010080008F808080810E000203F202020F1
:103DF300100F0008F88888E8081000203F202023CF
:103E030020180008F88888E8081000203F200003E5
:103E1300000000C0300808083800000718202022DE
:103E23001E020008F808000008F808203F210101DD
:103E3300213F20000808F8080800000020203F2048
:103E430020000000000808F8080800C08080807F78
:103E530000000008F888C028180800203F20012629
:103E630038200008F8080000000000203F20202030
:103E730020300008F8F800F8F80800203F003F0061
:103E83003F200008F830C00008F808203F20000752
:103E9300183F00E01008080810E0000F1020202051
:103EA300100F0008F808080808F000203F2101015E
:103EB300010000E01008080810E0000F182424385F
:103EC300504F0008F8888888887000203F2000033E
:103ED3000C302000708808080838000038202121A1
:103EE300221C00180808F8080818000000203F20CA
:103EF30000000008F808000008F808001F20202030
:103F0300201F000878880000C83808000007380E12
:103F1300010000F80800F80008F800033C07000758
:103F23003C0300081868808068180820302C0303BD
:103F33002C30200838C800C83808000000203F2073
:103F430000000010080808C838080020382621207F
:103F5300201800000000FE020202000000007F4063
:103F6300404000000C30C0000000000000000106CB
:103F730038C00000020202FE000000004040407F03
:103F83000000000000040202020400000000000020
:103F9300000000000000000000000080808080809E
:103FA3008080800002020400000000000000000086
:103FB300000000000080808080000000192422227D
:103FC300223F2008F8008080000000003F112020DD
:103FD300110E000000008080800000000E112020E0
:103FE300201100000000808088F800000E112020BE
:103FF300103F200000808080800000001F222222CA
:10400300221300008080F0888888180020203F2039
:104013002000000000808080808000006B949494D6
:1040230093600008F8008080800000203F2100009A
:10403300203F2000809898000000000020203F20AF
:10404300200000000000809898000000C08080805D
:104053007F000008F8000080808000203F24022DAC
:10406300302000000808F8000000000020203F2056
:104073002000008080808080808000203F20003FDF
:1040830020003F8080008080800000203F210000CE
:10409300203F200000808080800000001F2020201F
:1040A300201F00808000808000000080FFA120206E
:1040B300110E000000008080808000000E1120207F
:1040C300A0FF80808080008080800020203F21200E
:1040D30000010000008080808080000033242424BD
:1040E300241900008080E0808000000000001F2071
:1040F3002000008080000000808000001F2020201E
:10410300103F20808080000080808000010E3008F6
:1041130006010080800080008080800F300C030C3B
:10412300300F0000808000808080000020312E0E40
:10413300312000808080000080808080818E701814
:1041430006010000808080808080000021302C22C6
:1041530021300000000000807C020200000000000B
:104163003F404000000000FF00000000000000FF8F
:104173000000000002027C800000000040403F007D
:104183000000000006010102020404000000000018
:10419300000000506C6561736520776169742E2E91
:1041A30000255248002F004775616E677A686F7566
:1041B30000474554203200112233445500000000CB
:0B41C3000034431010013443101002C0
:00000001FF
