:10000000022327E4FDFCC3ED9FEC9E50147BD87ABD
:1000100004EB1B70011AEB4A70F70DBD00010C8058
:02002000E522D7
:10002300022A38AB05C285C291EF4420FF122BDCB4
:10003300AF03122BDCD291220229C97B019002D09B
:100043007405F07F109002CDEBF0A3EAF0A3E9F082
:10005300C285C291EF4420801D9002D0E0FF14F0CE
:10006300EF60199002CDE0FBA3E475F00112069056
:0F007300A9F0FA120563FF122BDC80DDD2912277
:10008300022110020458E86480F8E933E833601170
:100093000460F0ED33EC337009E8FCE9FDEAFEEBB4
:1000A300FF220460DED3EB9FEA9EE99DE8C2E78C62
:1000B300F0C2F795F0400CE8CCF8E9CDF9EACEFAB6
:1000C300EBCFFB12042385D0F05804700320D5B383
:1000D300E80470075002B2D502046292D5EC0460C2
:1000E300F7E4CCC0E0C398F8603B94186008400D77
:1000F300D0E0FB02043AE4FBFAC9FC8028E830E4D0
:1001030006E4C9FBE4CAFCE830E305E4C9CACBFC56
:10011300E854076010F8C3E913F9EA13FAEB13FB89
:10012300EC13FCD8F130F52FC3E49CFCEF9BFFEEFE
:100133009AFEED99FDD0E0FBEF4E4D4C701222DBA1
:100143000302045FEC2CFCEF33FFEE33FEED33FDD3
:10015300ED30E7EB02043AEF2BFFEE3AFEED39FD0B
:10016300D0E0FB50130BBB0003020462ED13FDEE62
:1001730013FEEF13FFEC13FC02043AEC4D6011E89D
:10018300497017ED33EC3304600DE4FCFFFEFD22F0
:10019300E933E8330470F802045812042358046066
:1001A30009E4CC2481500628500902046228400344
:1001B30002045FC0E0EB4A7044B98006D0E0FB0262
:1001C300044EEF4E701CBD8008EBFFEAFEE9FD8094
:1001D300EBE98DF0A4FEE5F0020267E9CDF9EAFE52
:1001E300EBFFEF89F0A4FCE5F0CE89F0A42EFFE449
:1001F30035F0CD89F0A42DFEE435F08067EF4E7025
:1002030005BD80D780C3EF8BF0A4ACF0EE8BF0A4D8
:100213002CFCE435F0F8EF8AF0A42CE5F038FCE48C
:1002230033CB8DF0A42CFCE5F03BF8EE8AF0A42C44
:10023300FCE5F038F8E433CF89F0A42CFCE5F03882
:10024300CF3400CE89F0A42FFFE5F03EFEE433C99E
:100253008DF0A42EFEE5F039CD8AF0A42FFFE5F052
:100263003EFEE43DFD33D0E0FB50070BBB000F0225
:100273000462EC2CFCEF33FFEE33FEED33FD02049E
:100283003A020462EC5D046005E859047003020459
:1002930058120423580460F6EC4860F2EC7004FD35
:1002A300FEFF22C860DB2481C85009C39860025056
:1002B3000602045F9850CAF582E9294B4A7005ABE0
:1002C3008202044E75F0007C1A7880C3EF9BEE9A8D
:1002D300ED99400DC3EF9BFFEE9AFEED99FDE842C9
:1002E300F0DC23ACF0D0E0FFD0E0FED0E0FDAB8249
:1002F30020E7101BEB60BAEC2CFCEF33FFEE33FE70
:10030300ED33FD02043AE803F830E705C0F075F079
:1003130000EF2FFFEE33FEED33FD40B830E7C28030
:10032300AA74F8CC6480CCC86480C8F58204604F9A
:10033300C3EB9FF5F0EA9E42F0E99D42F0E89C454D
:10034300F0603C501DE5825FFFE582D313CB5BCBAE
:10035300F42B5582FB50280ABA002409B90020085F
:10036300801DE5825BFBE582D313CF5FCFF4C3131C
:100373002F5582FF50090EBE00050DBD00010CC3B1
:10038300EB9FF5F0EA9E42F0E99D42F0E89C45F0D0
:100393006007CC4820E701B3EC22ED33EC33600A6D
:1003A300047003BD8004ECB2E7FC2275F020800EDC
:1003B30075F010800575F0087D007E007F00339294
:1003C300D530D5031206DEEC334010EF33FFEE33A6
:1003D300FEED33FDEC33FCD5F0ED22E5F0247EA2F7
:1003E300D513CC92E7CDCEFF22EDD2E7CD33EC335C
:1003F30092D524814006E4FFFEFDFC22FCE4CFCE2F
:10040300CDCC24E0501174FF80EDC3CC13CCCD13BD
:10041300CDCE13CECF13CF0470F030D5DE0206DE7F
:10042300E9D2E7C933E833F892D5EDD2E7CD33EC1F
:1004330033FC5002B2D522EC30E7100FBF000C0E94
:10044300BE00080DBD00040BEB6014A2D5EB13FC3A
:10045300ED92E7FD2274FFFCFDFEFF22E480F8A28B
:10046300D574FF13FC7D80E480EFE709F608DFFA1B
:100473008046E709F208DFFA803E88828C83E70929
:10048300F0A3DFFA8032E309F608DFFA8078E309A4
:10049300F208DFFA807088828C83E309F0A3DFFA25
:1004A300806489828A83E0A3F608DFFA8058898210
:1004B3008A83E0A3F208DFFA804C80D280FA80C6F8
:1004C30080D4806980F28033801080A680EA809A8D
:1004D30080A880DA80E280CA803389828A83ECFA3A
:1004E300E493A3C8C582C8CCC583CCF0A3C8C58296
:1004F300C8CCC583CCDFE9DEE7800D89828A83E43B
:1005030093A3F608DFF9ECFAA9F0EDFB2289828ABE
:1005130083ECFAE0A3C8C582C8CCC583CCF0A3C8DA
:10052300C582C8CCC583CCDFEADEE880DB89828A5A
:1005330083E493A3F208DFF980CC88F0EF60010E27
:100543004E60C388F0ED2402B4040050B9F582EB89
:100553002402B4040050AF23234582239004BD73C7
:10056300BB010689828A83E0225002E722BBFE0296
:10057300E32289828A83E49322BB010CE58229F575
:1005830082E5833AF583E0225006E92582F8E622E4
:10059300BBFE06E92582F8E222E58229F582E5839E
:1005A3003AF583E49322BB010689828A83F02250C1
:1005B30002F722BBFE01F322F8BB010DE58229F508
:1005C30082E5833AF583E8F0225006E92582C8F6EE
:1005D30022BBFE05E92582C8F222EF8DF0A4A8F024
:1005E300CF8CF0A428CE8DF0A42EFE22BC000BBE2F
:1005F3000029EF8DF084FFADF022E4CCF875F0080C
:10060300EF2FFFEE33FEEC33FCEE9DEC984005FC40
:10061300EE9DFE0FD5F0E9E4CEFD22EDF8F5F0EE08
:100623008420D21CFEADF075F008EF2FFFED33FDF3
:100633004007985006D5F0F222C398FD0FD5F0EA93
:1006430022C2D5EC30E709B2D5E4C39DFDE49CFC9E
:10065300EE30E715B2D5E4C39FFFE49EFE1205EF2B
:10066300C3E49DFDE49CFC80031205EF30D507C372
:10067300E49FFFE49EFE22C5F0F8A3E028F0C5F056
:10068300F8E582158270021583E038F022A3F8E0C2
:10069300C5F025F0F0E582158270021583E0C838B5
:1006A300F0E822BB0110E58229F582E5833AF58360
:1006B300E0F5F0A3E0225009E92582F886F008E688
:1006C30022BBFE0AE92582F8E2F5F008E222E5837F
:1006D3002AF583E993F5F0A3E99322C3E49FFFE4AA
:1006E3009EFEE49DFDE49CFC22ECF0A3EDF0A3EE62
:1006F300F0A3EFF022A8828583F0D083D082120783
:100703000F12070F12070F12070FE473E493A3C529
:1007130083C5F0C583C8C582C8F0A3C583C5F0C52A
:1007230083C8C582C822A42582F582E5F03583F506
:1007330083229002B77480F02006030208C5C20624
:100743009002D7E0FB7A009002BC7402F0A3740815
:10075300F0A37401F0E4A3F07D077F02121AE09086
:1007630002D8E0FB7A009002BC7402F0A37408F094
:10077300A37401F0E4A3F07D077F1A121AE030029C
:10078300089002DFE06428606F9002B7E0FF14F086
:10079300EF6063E4FFEFC394057480948050487E58
:1007A30001EEC3948074809480503975F080EFA477
:1007B3002400F582E5F03400F583E5822EF582E42A
:1007C3003583F583E0FD75F080EFA424FFF582E522
:1007D300F034FFF583E5822EF582E43583F583ED6E
:1007E300F00E80BD0F80AE9002B7E0540F709A7F79
:1007F300021228608093C2029002DFE0642870072F
:10080300D2029002D104F09002D1E024FE602D14B4
:10081300606E240260030208C5121EAAE49002BCA3
:10082300F0A3F0A3F07B04FA7D077F32121DC1E42D
:100833009002BCF0A3F0A3F07B03802112250BE40C
:100843009002BCF0A3F0A3F07B03FA7D077F321282
:100853001DC1E49002BCF0A3F0A3F07B04FA7D0772
:100863007F3C121DC1E49002BCF0A3F0A3F07B0314
:10087300FA7D077F46121DC19002D1E004F0804249
:100883001212E6E49002BCF0A3F0A3F07B03FA7D1E
:10089300077F32121DC1E49002BCF0A3F0A3F07BEA
:1008A30003FA7D077F3C121DC1E49002BCF0A3F064
:1008B300A3F07B04FA7D077F46121DC19002D17419
:1008C30001F09002D1E0640160030209639002D950
:1008D300E075F00A84FB7A00E49002BCF0A3F0A375
:1008E300F07D037F5912186B9002D9E075F00A84EA
:1008F300E5F0FB7A00E49002BCF0A3F0A3F07D03E3
:100903007F6912186B9002D8E075F00A84E5F0FB5A
:100913007A009002BC7401F0E4A3F0A3F07D037F9E
:100923004012186B9002D9E075F00A84FB7A0090AC
:1009330002BC7401F0E4A3F0A3F07D037F59121805
:100943006B9002D9E075F00A84E5F0FB7A0090021F
:10095300BC7401F0E4A3F0A3F07D037F69020A53A2
:100963009002D1E064026003020A569002E9E07546
:10097300F00A84FB7A00E49002BCF0A3F0A3F07DBC
:10098300037F0512186B9002E9E075F00A84E5F025
:10099300FB7A00E49002BCF0A3F0A3F07D037F1583
:1009A30012186B9002E9E075F00A84FB7A0090025A
:1009B300BC7401F0E4A3F0A3F07D037F0512186B70
:1009C3009002E9E075F00A84E5F0FB7A009002BC3E
:1009D3007401F0E4A3F0A3F07D037F1512186B906C
:1009E30002E7E075F00A84FB7A00E49002BCF0A30E
:1009F300F0A3F07D037F4012186B9002E7E075F0DF
:100A03000A84E5F0FB7A00E49002BCF0A3F0A3F0C3
:100A13007D037F5012186B9002E7E075F00A84FBA8
:100A23007A009002BC7401F0E4A3F0A3F07D037F8D
:100A33004012186B9002E7E075F00A84E5F0FB7A48
:100A4300009002BC7401F0E4A3F0A3F07D037F5097
:100A530012186B22C101C100603202800000000045
:100A63000000000000000000000000000000000083
:100A73000000000000000000000000000000000073
:100A8300000000000000000000000000000042021F
:100A9300B200004202B400004102EC004102EE0049
:100AA3004102ED00C106628000000000000000006A
:100AB3000000000000000000000000000000000033
:100AC3000000000000000000000000000000000023
:100AD3000000000000000000000000000000000013
:100AE3000000000000000000000000000000000003
:100D230000000000000000000000C1074102DE00D7
:100D33004102DF004702E0065A00000400004102BE
:100D4300DD00C1034102D103C10200E49002BBF004
:100D5300A3F0A3F0A3F0FBFA1228DE9002BBEEF09F
:100D6300A3EFF053E8F043B38053B47FE4F5F643C5
:100D7300F60143E1019002BBE0FEA3E0FF122A9FCC
:100D83009002BBE0FEA3E0FF122A9F9002BDEEF0AB
:100D9300A3EFF053E8F043E80143AC0153ADFEE4A5
:100DA300F5F643F60243E1019002BBE0FEA3E0FF48
:100DB300122A9F9002BBE0FEA3E0FF122A9FAA061D
:100DC300AB0753E1FE9002B7E4F0A3741EF0900268
:100DD300BCE024E2FE9002BBE034FF9002B9F0A332
:100DE300CEF0C39002BEE0941E9002BDE09400508A
:100DF300209002BAE09B9002B9E09A40149002B8A6
:100E0300E09B9002B7E09A50089002E374F0020F5F
:100E1300469002B9E0FEA3E0FFD39002BEE09F90AC
:100E230002BDE09E4021D39002BAE09B9002B9E05C
:100E33009A40149002B8E09B9002B7E09A50089051
:100E430002E3740F020F469002B9E0FEA3E0FFC372
:100E53009BEE9A50249002BDE0FCA3E0FDC39FECFF
:100E63009E50169002B7E0FEA3E0FFED9FEC9E407C
:100E7300089002E374AA020F46D39002B8E09B9055
:100E830002B7E09A402B9002B9E0FEA3E0FF900284
:100E9300BDE0FCA3E0FD9FEC9E50169002B7E0FE80
:100EA300A3E0FFED9FEC9E40089002E37455020F10
:100EB30046C39002BAE09B9002B9E09A501C90029C
:100EC300B7E0FEA3E0FFC39002BEE09F9002BDE047
:100ED3009E50079002E374FA80699002B9E0FEA382
:100EE300E0FFC39BEE9A50139002BEE09F9002BDB9
:100EF300E09E40079002E374AF80489002B7E0FEA3
:100F0300A3E0FFD39BEE9A40139002BEE09F9002B2
:100F1300BDE09E50079002E374F58027D39002B89A
:100F2300E09B9002B7E09A40229002B9E0FEA3E072
:100F3300FFD39002BEE09F9002BDE09E400D900261
:100F4300E3745FF0E49002DDF08015E49002E3F0D7
:100F53009002DDE0C39408748094805003E004F0B1
:100F63009002DDE06408D37001C322E49002BCF078
:100F7300A3F0A3F07B04FAFD7F701211411219B4A0
:100F83007F587E02120003122C591215D07BFF7A70
:100F93004279599002BD7408F0C209E4A3F07D04BC
:100FA3007F0F1226CC7F081225A3E4FB7D047F0468
:100FB300122B93E49002BCF0A3F0A3F07B03FA7D21
:100FC300077F32121DC1E49002BCF0A3F0A3F07BB3
:100FD30004FA7D077F3C121DC1E49002BCF0A3F02C
:100FE300A3F07B03FA7D077F46121DC19002D7E071
:100FF300FB7A009002BC7402F0A37408F0A374019E
:10100300F0E4A3F07D077F02121AE09002CA74088D
:10101300F0E4A3F07B3A7D077F12121BF39002D812
:10102300E0FB7A009002BC7402F0A37408F0A3748E
:1010330001F0E4A3F07D077F1A121AE07B017A0224
:1010430079E712204A9002E9E0FB7A009002BC742F
:1010530002F0A37408F0A37401F0E4A3F07D077F0A
:1010630056121AE09002CA7408F0E4A3F07B2E7DB6
:10107300077F66121BF39002EAE0FB7A009002BC42
:101083007401F0A37408F0E4A3F0A3F07D077F6D6F
:10109300121AE0E49002BCF0A3F0A3F07B05FA7D02
:1010A300077F76121DC19002D2E0FB9002BB740849
:1010B300F0E4A3F0A3F07D027F09121F809002D217
:1010C300E004FB9002BB7408F0E4A3F0A3F07D02FC
:1010D3007F31121F809002D2E02402FB9002BB7486
:1010E30008F0E4A3F0A3F07D027F59121F80900261
:1010F300DAE0FB7A009002BC7401F0E4A3F0A3F001
:101103007D037F081217229002DBE0FB7A00900236
:10111300BC7401F0E4A3F0A3F07D037F3012172227
:101123009002DCE0FB7A009002BC7401F0E4A3F0CF
:10113300A3F07D037F581217227F020228609002DA
:10114300B9EDF09002B8EFF0FCAE02EB7805C333D3
:10115300CE33CED8F9FF9002C0EEF0A3EFF0ECFF50
:101163007E00C37480948050030212E5D3EF947021
:101173007480948040030212E59002BCE060030295
:1011830012239002B8E0FFA3E0FD122E2CE490029C
:10119300BFF09002BFE0C39410748094805030A3DA
:1011A300E0FEA3E02457F58274303EF583E493FF19
:1011B3009002BDA3E0FD122CA59002C1E004F070E3
:1011C300069002C0E004F09002BFE004F080C390F8
:1011D30002B8E0FFA3E004FD122E2CE49002BFF05E
:1011E3009002BFE0C394107480948040030212E520
:1011F300A3E0FEA3E02457F58274303EF583E49325
:10120300FF9002BDA3E0FD122CA59002C1E004F003
:1012130070069002C0E004F09002BFE004F080C0CA
:10122300E49002BFF09002BFE0FFC3941074809477
:1012330080504EA3E0FCA3E02457F58274303CF5C4
:1012430083E493FEEFFD9002B8E02DFDE433FCA3AD
:10125300E075F080A42400F582E5F034FFF583E522
:10126300822DF582E5833CF583EEF09002C1E00424
:10127300F070069002C0E004F09002BFE004F0803A
:10128300A4E49002BFF09002BFE0FFC39410748007
:101293009480504EA3E0FCA3E02457F58274303CC5
:1012A300F583E493FEEFFD9002B8E02DFDE433FCFB
:1012B300A3E075F080A42480F582E5F034FFF58384
:1012C300E5822DF582E5833CF583EEF09002C1E0E3
:1012D30004F070069002C0E004F09002BFE004F056
:1012E30080A4229002D2E0FB9002BB7408F0E4A336
:1012F300F0A3F07D027F12121F809002D3E0FB7AED
:10130300009002BC7402F0A37408F0A37401F0A36C
:10131300F0E4A3F07D027F301214787BFF7A4279E8
:101323006B9002C37408F0A37401F0E4A3F07D0290
:101333007F3C121CD69002D4E0FB7A009002BC746E
:1013430002F0A37408F0A37401F0A3F0E4A3F07D0A
:10135300027F421214787BFF7A42796B9002C37446
:1013630008F0A37401F0E4A3F07D027F4E121CD6B3
:101373009002D5E0FAA3E0FB9002BC7404F0A374DE
:1013830008F0A37401F0A3F0E4A3F07D027F5412EC
:1013930014789002D7E075F00A84FB7A009002BCBF
:1013A3007401F0E4A3F0A3F07D037F0712186B90A0
:1013B30002D7E075F00A84E5F0FB7A009002BC7472
:1013C30001F0E4A3F0A3F07D037F1712186B9002E2
:1013D300BC7401F0E4A3F0A3F07B0AFA7D037F273A
:1013E30012186B9002D8E075F00A84FB7A00900221
:1013F300BC7401F0E4A3F0A3F07D037F3012186BFB
:101403009002D8E075F00A84E5F0FB7A009002BC04
:101413007401F0E4A3F0A3F07D037F4012186B90F6
:1014230002BC7401F0E4A3F0A3F07B0AFA7D037F0E
:101433005012186B9002D9E075F00A84FB7A009081
:1014430002BC7401F0E4A3F0A3F07D037F591218EA
:101453006B9002D9E075F00A84E5F0FB7A00900204
:10146300BC7401F0E4A3F0A3F07D037F6912186B51
:101473007F020228609002B8EFF0A3EDF0A3EAF038
:10148300A3EBF0E49002C1F09002C3F09002C2F02B
:101493009002BCE0FF9002C2E0FEC39F400302152E
:1014A300CFC3EF9E14FD7F0A122E8A9002BAE0FC8E
:1014B300A3E0FDCFCDCFCECCCE1205EF7C007D0ACD
:1014C3001205EF9002C1EDF09002C3E07036900276
:1014D300BCE014FF9002C2E0C39F50289002C1E019
:1014E300FF3395E0FEEF4E70159002BEE06007E417
:1014F3009002C1F0800E9002C174F0F08006900259
:10150300C37401F09002BFE0704C9002B8E0FF7E1C
:1015130000C37480948050030215CFD3EF94787482
:1015230080948040030215CF9002C2E075F008A4B6
:10153300FF9002B8E02FFFA3E0FD9002C1E024304A
:10154300FB9002BDE09002CAF09002C0E09002CB93
:10155300F0121BF380669002BDE064087065F9E940
:10156300C394067480948050539002C1E0FF339576
:10157300E0FE903AA175F006EF120729EE75F0062A
:10158300A42583F583E58229F582E43583F583E495
:1015930093FFE9FD9002B8E02DFDE433FCA3E07571
:1015A300F080A42400F582E5F034FFF583E5822D75
:1015B300F582E5833CF583EFF00980A39002B8E060
:1015C3002406F09002C2E004F0021493229002B7C2
:1015D300E4F0A3F0A3F0200003021713C20090026B
:1015E300B2F0A3F07B017A0279809002B704F0A3F2
:1015F300EAF0A3E9F09002BD74FFF0A37442F0A3F4
:10160300746DF0A3E4F0A37409F0122279EF700370
:101613000217139002B7E0FBA3E0FAA3E0F99000EE
:101623001912057C9002D7F090001A12057C9002E3
:10163300D8F090001B12057C9002D9F0900018128C
:10164300057C9002D2F09000161206A6ACF0ECFFD7
:10165300EF9002D3F09000141206A6FDACF0ECFF5D
:10166300EF9002D4F09000121206A6FAE5F0FFEA1A
:10167300FE9002D5EEF0A3EFF0A3E0FF7E00C3944B
:1016830005748094804015D3EF9411748094805036
:101693000B9002B7A3E0FA90000C803E9002D7E0D3
:1016A300FF7E00D39411748094804009EF941874E2
:1016B30080948040179002D7E0FF7E00C37480942B
:1016C30080401EEF94057480948050159002B7E01B
:1016D300FBA3E0FAA3E0F990000D12057C9002DA77
:1016E300F09002B7E0FBA3E0FAA3E0F990000E123A
:1016F300057C9002DBF090001012057C9002DCF078
:101703009002D8E09002EDF09002D9E09002EEF062
:1017130030030BC2037BFF7A427977122F5C22904E
:1017230002B9EDF09002B8EFF0FCAE02EB7807C31C
:1017330033CE33CED8F9FF9002C1EEF0A3EFF0EC35
:10174300FFC374809480500302186AD3EF946074CB
:10175300809480400302186A9002BCE0706D90028E
:10176300C0F09002C0E0FEC39404748094804003F0
:1017730002186A9002B8E0FFA3E02EFD122E2CE4BB
:101783009002BFF09002BFE0C39420748094805015
:10179300329002C1E0FEA3E02417F58274323EF5D5
:1017A30083E493FF9002BDA3E0FD122CA59002C237
:1017B300E004F070069002C1E004F09002BFE00480
:1017C300F080C19002C0E004F08097E49002C0F082
:1017D3009002C0E0C3940474809480400302186AAA
:1017E300E49002BFF09002BFE0C394207480948021
:1017F300506C9002C1E0FEA3E02417F58274323EE0
:10180300F583E493FD9002C0E0FF9002B9E02FFF5F
:10181300E433FEEF7807C333CE33CED8F92400F593
:101823008274FF3EF583C083C0829002BFE0FF90C5
:1018330002B8E02FFFE433FED082D083E5822FF598
:1018430082E5833EF583EDF09002C2E004F070067A
:101853009002C1E004F09002BFE004F080879002A0
:10186300C0E004F00217D3229002B9EDF09002B861
:10187300EFF0FCAE02EB7806C333CE33CED8F9FFDC
:101883009002C1EEF0A3EFF0ECFFC374809480509C
:10189300030219B3D3EF9470748094804003021948
:1018A300B39002BCE0706D9002C0F09002C0E0FE05
:1018B300C394047480948040030219B39002B8E087
:1018C300FFA3E02EFD122E2CE49002BFF09002BF86
:1018D300E0C394107480948050329002C1E0FEA360
:1018E300E02497F58274363EF583E493FF9002BDBE
:1018F300A3E0FD122CA59002C2E004F07006900252
:10190300C1E004F09002BFE004F080C19002C0E0A7
:1019130004F08097E49002C0F09002C0E0C3940406
:101923007480948040030219B3E49002BFF09002E4
:10193300BFE0C3941074809480506C9002C1E0FEA9
:10194300A3E02497F58274363EF583E493FD900279
:10195300C0E0FF9002B9E02FFFE433FEEF7807C346
:1019630033CE33CED8F92400F58274FF3EF583C01D
:1019730083C0829002BFE0FF9002B8E02FFFE43300
:10198300FED082D083E5822FF582E5833EF583ED99
:10199300F09002C2E004F070069002C1E004F090FF
:1019A30002BFE004F080879002C0E004F002191C3B
:1019B30022E49002B7F07BFF7A30790F9002BD7476
:1019C30008F0C209E4A3F07D047F0F1226CC900235
:1019D300BC7403F0A37408F0E4A3F0A3F0FBFA7D56
:1019E300047F4F121AE07BFF7A3079179002BD749F
:1019F30008F0C209E4A3F07D047F691226CC7D05BB
:101A03007F191221CB7F647E00120003E49002BC95
:101A1300F0A3F0A3F0FBFA7D067F1D121DC1900217
:101A2300BC7403F0A37408F0E4A3F0A3F07B26FADC
:101A33007D047F4F121AE07FC87E00120003E490FA
:101A430002BCF0A3F0A3F07B01FA7D067F1E121DFA
:101A5300C19002BC7403F0A37408F0E4A3F0A3F0F4
:101A63007B27FA7D047F4F121AE0E49002B7F090CF
:101A730002B7E0C3943D7480948050607FE67E009B
:101A83001200039002B7E0241FFFE49002BCF0A30E
:101A9300F0A3F07B02FA7D06121DC19002B7E02489
:101AA30028FBE433FA9002BC7403F0A37408F0E457
:101AB300A3F0A3F07D047F4F121AE09002B7E06415
:101AC300327011C2009002B2F0A3F07BFF7A30793A
:101AD30019122F5C9002B7E004F08093229002B8B1
:101AE300EFF0A3EDF0A3EAF0A3EBF0E49002C0F073
:101AF3009002C2F09002C1F09002BCE0FF9002C1DC
:101B0300E0FEC39F4003021BDFC3EF9E14FD7F0A69
:101B1300122E8A9002BAE0FCA3E0FDCFCDCFCECC4B
:101B2300CE1205EF7C007D0A1205EF9002C0EDF0A6
:101B33009002C2E070719002BCE014FF9002C1E019
:101B4300FEC39F50629002C0E0FD3395E0FCED4C74
:101B5300704F9002BEE06023EE75F008A4FF900280
:101B6300B8E02FFFA3E0FD9002BDE09002CAF09021
:101B730002BFE09002CBF07B3080559002C1E0754C
:101B8300F008A4FF9002B8E02FFFA3E0FD9002BD90
:101B9300E09002CAF09002BFE09002CBF07B20807D
:101BA3002F9002C27401F09002C1E075F008A4FF07
:101BB3009002B8E02FFFA3E0FD9002C0E02430FBC9
:101BC3009002BDE09002CAF09002BFE09002CBF019
:101BD300121BF39002C1E004F0021AFB222430FB33
:101BE300900000E09002CAF0900000E09002CBF079
:101BF3009002C8EDF09002C7EFF0E49002CCF0FE43
:101C0300D3EF9478748094804003021CD59002C86B
:101C1300E07C00C39408748094804003021CD5C305
:101C2300748094805003021CD57480948050030206
:101C33001CD5EB24E09002CCF09002CAE064107053
:101C430053122E24E4F9E9C3940874809480501647
:101C53009002CCE075F010A42469F582E5F0343CE1
:101C6300122C910980E09002C7E0FFA3E004FD126B
:101C73002E2CE4F9E9C394087480948050549002A4
:101C8300CCE075F010A42471F582E5F0343C122CFD
:101C9300910980E09002CAE064087036122E24E4B1
:101CA300F9E9C394067480948050169002CCE075D1
:101CB300F006A42441F582E5F0343A122C91098010
:101CC300E09002CBE0FDE4FF122CA5E0FDE4FF125F
:101CD3002CA5229002BEEFF0A3EDF0A3EBF0A3EA54
:101CE300F0A3E9F0E49002C6F09002C0E0FBA3E0A9
:101CF300FAA3E0F9120563FB7003021DC09002C44E
:101D0300E070369002BEE0FF7E00C3748094805082
:101D130003021DC0D3EF9478748094804003021DA6
:101D2300C0A3E0FD9002C3E09002CAF09002C5E0B8
:101D33009002CBF0121BF380709002C0E0FBA3E093
:101D4300FAA3E0F912056324E09002C6F09002C3FF
:101D5300E06408705BF9E9C3940674809480504989
:101D63009002C6E075F006A42441F582E5F0343A0A
:101D7300F583E58229F582E43583F583E493FFE96E
:101D8300FD9002BEE02DFDE433FCA3E075F080A4DA
:101D93002400F582E5F034FFF583E5822DF582E535
:101DA300833CF583EFF00980AD9002BEE02406F09A
:101DB3009002C1E475F00112067A021CEC22900233
:101DC300B9EDF09002B8EFF0FCAE02EB7803C33349
:101DD300CE33CED8F9FF9002C0EEF0A3EFF0ECFFC4
:101DE3007E00C3748094805003021EA9D3EF9478BD
:101DF300748094804003021EA99002BCE07050904E
:101E030002B8E0FFA3E0FD122E2CE49002BFF09095
:101E130002BFE0C39408748094804003021EA9A308
:101E2300E0FEA3E0241FF58274303EF583E493FFC4
:101E33009002BDA3E0FD122CA59002C1E004F07056
:101E4300069002C0E004F09002BFE004F080C0E41A
:101E5300F9E9C3940874809480504B9002C0E0FE6B
:101E6300A3E0241FF58274303EF583E493FFE9FD7C
:101E73009002B8E02DFDE433FCA3E075F080A424C8
:101E830000F582E5F034FFF583E5822DF582E583E5
:101E93003CF583EFF09002C1E004F070069002C0BD
:101EA300E004F00980AB229002E9E075F00A84FBBC
:101EB3007A009002BC7401F0E4A3F0A3F07D037FE9
:101EC3000512186B9002E9E075F00A84E5F0FB7ADD
:101ED300009002BC7401F0E4A3F0A3F07D037F152E
:101EE30012186B9002BC7401F0E4A3F0A3F07B071B
:101EF300FA7D037F251217229002BC7401F0E4A33C
:101F0300F0A3F07B05FA7D027F27121DC19002E743
:101F1300E075F00A84FB7A009002BC7401F0E4A33C
:101F2300F0A3F07D037F4012186B9002E7E075F099
:101F33000A84E5F0FB7A009002BC7401F0E4A3F09C
:101F4300A3F07D037F5012186B9002BC7401F0E480
:101F5300A3F0A3F07B06FA7D037F601217227BFFB9
:101F63007A4279679002C37408F0A37401F0E4A382
:101F7300F07D027F62121CD67F020228609002B8B5
:101F8300EFF0A3EDF0EBC3940874809480400474E5
:101F9300F92BFBEB14B407004003022049901FAE5A
:101FA30075F003A4C58325F0C58373021FC3021F05
:101FB300D3021FE3021FF302200302201302202394
:101FC3009002B8E0FFA3E0FD7BFF7A2F79E5805E06
:101FD3009002B8E0FFA3E0FD7BFF7A2F79EB804E00
:101FE3009002B8E0FFA3E0FD7BFF7A2F79F1803EFA
:101FF3009002B8E0FFA3E0FD7BFF7A2F79F7802EF4
:102003009002B8E0FFA3E0FD7BFF7A2F79FD801EED
:102013009002B8E0FFA3E0FD7BFF7A307903800EE6
:102023009002B8E0FFA3E0FD7BFF7A3079099002CC
:10203300BBE09002C3F0A37401F09002BCA3E09054
:1020430002C5F0121CD6229002B7EBF0A3EAF0A36C
:10205300E9F053B1F753B2F7C2837F627E02122EC7
:10206300C4D2837F017E00122EC430830302210D6C
:102073003083FD2083FD12295A9002B7E0FBA3E0D1
:10208300FAA3E0F9EF1205A912295A9002B7E0FB6F
:10209300A3E0FAA3E09000011229559002B7E0FBF8
:1020A300A3E0FAA3E09000021229559002B7E0FBE7
:1020B300A3E0FAA3E0F99000031229569002B7E0D7
:1020C300FBA3E0FAA3E0F9900004EF1205BBD2836F
:1020D30090000112057CFF1205632FFFE433FE908D
:1020E300000212057C7C002FFFEC3EFE90000312E1
:1020F300057C2FFFEC3EFE90000412057CB507071C
:10210300ECB506037F01227F00227F0022C0E0C0DE
:10211300F0C083C082C0D075D000C0079002ECE04D
:1021230004F0E0C39414748094804066E4F0900259
:10213300EEE004F09002D9F09002EEE0643C7038D7
:10214300F09002D9F09002EDE004F09002D8F09004
:1021530002EDE0643C7013F09002D8F09002D7E0F7
:1021630004F0E064187003F0A3F09002D8E075F077
:102173001E84E5F07002D2039002EEE0FF75F003D7
:1021830084E5F07002D207EF75F00F84E5F070027A
:10219300D2069002DEE0600214F09002B4E0700216
:1021A300A3E060179002B5E024FFF09002B4E0349E
:1021B300FFF0E07002A3E07002D200D007D0D0D0CD
:1021C30082D083D0F0D0E0329002B8EFF0A3EDF0EC
:1021D300E4A3F0A3F0122E2CE49002BAF09002BA1A
:1021E300E0C3944E74809480501AA3E090395793BF
:1021F300FFE4FD122CA59002BBE004F09002BAE0CC
:1022030004F080D99002B8E0FFA3E004FD122E2C65
:10221300E49002BAF09002BAE0C3944E74809480C2
:10222300501AA3E090395793FFE4FD122CA59002B6
:10223300BBE004F09002BAE004F080D99002B8E069
:10224300FFA3E02402FD122E2CE49002BAF09002C8
:10225300BAE0C3944E74809480501AA3E090395727
:1022630093FFE4FD122CA59002BBE004F09002BAA8
:10227300E004F080D9229002BAEBF0A3EAF0A3E9DC
:10228300F0E49002C4F0A3F0E49002C2F0A3F09053
:1022930002BAE0FBA3E0FAA3E0F99002C4E0FEA3D4
:1022A300E0FFE92FF9EA3EFA9002C2E0FEA3E0FF65
:1022B30029F9EA3EFA120563FD9002BDE0FBA3E0B3
:1022C300FAA3E0F98F828E8312057CB5052D900267
:1022D300C3E02401FF9002C2E03400FE9002C0E09C
:1022E300B50608A3E0B507037F01229002C3E0040B
:1022F300F0709C9002C2E004F080949002C5E00468
:10230300F070069002C4E004F09002C0E0FEA3E087
:10231300FFC39002C5E09F9002C4E09E50030222D7
:102323008B7F002275C7AA75C75575FD5A75C7AA55
:1023330075C75575FDA5787FE4F6D8FD9000007F3D
:10234300FF7E03E4F0A3DFFCDEFA75812102238E16
:10235300022DB1E493A3F8E493A34003F68001F2C2
:1023630008DFF48029E493A3F85407240CC8C3338B
:10237300C4540F4420C8834004F456800146F6DF5A
:10238300E4800B0102040810204080900A57E47E89
:10239300019360BCA3FF543F30E509541FFEE4934F
:1023A300A360010ECF54C025E060A840B8E493A316
:1023B300FAE493A3F8E493A3C8C582C8CAC583CA41
:1023C300F0A3C8C582C8CAC583CADFE9DEE780BEF9
:1023D3009002B7EBF0A3EAF0A3E9F0A3EDF0A37446
:1023E30070F0EDFF7E00D39400748094804076D328
:1023F300EF942074809480506CC2857D0EE4FF12AC
:1024030000269002B7E0FBA3E0FAA3E0F9A3E0FD06
:10241300122C1F122F8230840C9002BBE0F4600553
:10242300E004F080F1C2857F07122F949002BBEF86
:10243300F0FD7F07120026E0543024F0600C24F0F6
:1024430070109002BB7401F0800D9002BB74FFF01A
:102453008005E49002BBF0122FC67D0FE4FF12004B
:1024630026D2858005E49002BBF09002BBE0FF22F8
:10247300E4FDFCA2AF9205C2AF75C7AA75C7554369
:102483009F01A20592AF75AF0475A60CF5A7A2AF85
:102493009205C2AF75C7AA75C75543A401A2059299
:1024A300AF7F02FE1200039002C1E5AEF075AF04E8
:1024B30075A60DE4F5A7A2AF9205C2AF75C7AA75BD
:1024C300C75543A401A20592AF7F02FE120003ADDC
:1024D300AEA2AF9205C2AF75C7AA75C755539FFE8B
:1024E300A20592AF9002C1E075F010A47C002DFD0F
:1024F300EC35F0FC7E0F7FFF1205EF7C0C7D00CFE7
:10250300CDCFCECCCE0205EF9002D2E0FB9002BB42
:102513007408F0E4A3F0A3F07D027F09121F8090FA
:1025230002D2E004FB9002BB7408F0E4A3F0A3F032
:102533007D027F31121F809002D2E02402FB9002C1
:10254300BB7408F0E4A3F0A3F07D027F59121F804F
:102553009002DAE0FB7A009002BC7401F0E4A3F08D
:10256300A3F07D037F081217229002DBE0FB7A00C1
:102573009002BC7401F0E4A3F0A3F07D037F30125A
:1025830017229002DCE0FB7A009002BC7401F0E4B5
:10259300A3F0A3F07D037F581217227F0202286065
:1025A3009002B7EFF0640C70109002BCF0A3F0A39C
:1025B300F07B0CFAFDFF1211419002B7E0640D703D
:1025C300119002BCF0A3F0A3F07B0DFAFD7F501233
:1025D30011419002B7E0640570119002BCF0A3F0C2
:1025E300A3F07B05FAFD7F601211419002B7E0244E
:1025F300F86030146020146010147039E49002BC49
:10260300F0A3F0A3F07B0B8025E49002BCF0A3F0D1
:10261300A3F07B0A8018E49002BCF0A3F0A3F07B44
:1026230009800BE49002BCF0A3F0A3F07B08FAFD51
:102633007F40121141229002B77478F078B87C027F
:102643007D017BFF7A4279877E007F0512053D7805
:10265300BD7C027D017BFF7A42798C7E007F05126F
:10266300053D122FD87F027E00122E6B1227DD50FC
:1026730057C2857D037F031200267A0279B81200C0
:102683003E7B017A0279BD9002D07405F07F0A1275
:1026930000487D017F011200267D017F0212002682
:1026A3007D207F111200267D187F041200269002E0
:1026B300B7E0FD7F051200267D0F7F061200267D01
:1026C3000FE4FF120026D285229002B8EFF0A3EDAB
:1026D300F0A3EBF0A3EAF0A3E9F0E49002BFF0303B
:1026E30009089002B8E09002BFF09002BAE0FBA3A1
:1026F300E0FAA3E0F9120563FB60589002B8E0C367
:1027030094787480948040229002BFE09002B8F0E5
:102713009002BDE0131313541FFF9002B9E02FF092
:10272300E0C394087480948050299002B8E0FFA31A
:10273300E0FD9002BDE09002CAF09002BE121BEED3
:102743009002B8E02408F09002BBE475F001120691
:102753007A809722122FA57FAE122E537FD5122E89
:10276300537F80122E537F20122E537F02122E533B
:102773007FA8122E537F3F122E537FDA122E537FE0
:1027830012122E537FA1122E537FC8122E537F4055
:10279300122E537FD3122E4E7F81122E537FCF12D0
:1027A3002E537FD9122E537FF1122E537FDB122E1D
:1027B300537F20122E537F8D122E537F14122E53CC
:1027C3007FA4122E537FA6122E537FAF122E53E4F3
:1027D300FF122CC5E4FDFF022E2C78C27C027D0182
:1027E3007BFF7A42797D7E007F0512053D78C77CA9
:1027F300027D017BFF7A4279827E007F0512053DCF
:10280300C2857A0279C212003E7B017A0279C790AF
:1028130002D07405F07F10122DD9122F829002C2BC
:10282300E0FF9002C7E06F70329002C3E0FF9002B6
:10283300C8E06F70269002C4E0FF9002C9E0B507BC
:102843001A9002C5E0FF9002CAE0B5070E9002C6D7
:10285300E0FF9002CBE0B50702D322C3229002B877
:10286300EFF0E4A3F0A3F09002BCF09002BBF09071
:1028730002BBE0FFC3940574809480505D9002B85E
:10288300E024B0FEEF2EFF122E537F10122E53E4DE
:10289300FF122E53E49002BCF09002BCE0FFC394FD
:1028A3008074809480502B9002BBE075F080A42448
:1028B30000F582E5F03400F583E5822FF582E435F7
:1028C30083F583E0FFE4FD122CA59002BCE004F045
:1028D30080C79002BBE004F0809522E49002BFF031
:1028E300A3F043E80853E8F843E101FFEFC394047E
:1028F30074809480500AC2EFD2EE30EFFD0F80EC6B
:10290300AFC29002BFE4F0A3EFF0AFC3EF75F010D6
:10291300A4FF9002BFE045F0F0A3E04FF012247350
:10292300AA06AB079002BFE0FCA3E0FD7E107F0088
:102933001205EFAC06AD07AF03AE021205DD900240
:10294300BFEEF0A3EFF053E1FE9002BFE0FEA3E081
:10295300FF22F9EF1205BBE49002BBF09002BAF03C
:102963009002BAE0C394087480948050533083FD7E
:102973007F017E00122EC430831F2083FD9002BB93
:10298300E0FF9002BAE0FEC374079EFEF8740108EC
:102993008002C333D8FC4F801B9002BBE0FF900240
:1029A300BAE0FEC374079EFEF87401088002C333C5
:1029B300D8FCF45F9002BBF09002BAE004F080A070
:1029C3009002BBE0FF22C0E0C0F0C083C082C0D051
:1029D30075D000C000C001C002C003C004C005C060
:1029E30006C007AFECEF642070307F1EFE120003B9
:1029F3002095249002DFE0700B7428F0D206C29277
:102A0300D2AC800BC2AC9002DFE4F0D203D292903E
:102A130002DFE09002E2F053ECDFD007D006D005EE
:102A2300D004D003D002D001D000D0D0D082D08344
:102A3300D0F0D0E032C0E0C083C082C0D075D000F7
:102A4300C004C007E4FF309846122FB2D201200021
:102A53003E9002B2E0FCA3E02480F58274023CF5D0
:102A630083EFF09002B3E004F070069002B2E0044A
:102A7300F0C39002B3E094329002B2E094004006B7
:102A8300C201E4F0A3F09002B4E4F0A37402F0D026
:102A930007D004D0D0D082D083D0E0329002BFEEF2
:102AA300F0A3EFF0E4FDFCC2EFD2EE30EFFDAFC2D6
:102AB300AD07AFC3EF75F010A4FFE5F0FCED4FFDDC
:102AC300E41203B3C004C005C006C0079002BFE010
:102AD300FCA3E0FDE41203B3D003D002D001D00085
:102AE30012017EE4FBFA798078451202870203EC37
:102AF3009002B7EBF0A3EAF0A3E9F0E4A3F0A3F0AC
:102B03007F01EFC394057480948050249002B7E052
:102B1300FBA3E0FAA3E0F98F8275830012057CFD25
:102B23009002BBE02DF09002BAE03400F00F80D2A7
:102B33009002BAA3E0F4FF7E009002BAEEF0A3EF96
:102B4300F02230074AC2077B017A0279E712204A52
:102B5300EF603C9002E9E0FB7A009002BC7402F063
:102B6300A37408F0A37401F0E4A3F07D077F561269
:102B73001AE09002EAE0FB7A009002BC7401F0A331
:102B83007408F0E4A3F0A3F07D077F6D121AE0222E
:102B93009002B8EDF0A3EBF09002B7EFF0C3940806
:102BA300748094805032E4FA9002B8E0FFEAC39F45
:102BB30050269002B7E024B02A122E48E4F9E9C364
:102BC300948074809480500D9002B9E0FFE4FD126C
:102BD3002CA50980E90A80D022AD07C290E4FCEC61
:102BE300C39408748094805030ED30E704D2818020
:102BF30002C2817F017E00122F88ED25E0FDD29075
:102C03007F017E00122F88A280E4334DFDC2907FA6
:102C1300017E00122F880C80C6AF05229002BCEB08
:102C2300F0A3EAF0A3E9F0A3EDF0C2917FA0801E28
:102C33009002BFE0FF14F0EF60199002BCE0FBA329
:102C4300E475F001120690A9F0FA120563FF122B46
:102C5300DC80DDD291229002D77405F0E4A3F0A3C7
:102C6300F09002D204F0A3741CF0A37405F0A374D3
:102C730007F0A374CDF09002DA7408F0A3F0A3F088
:102C83009002D8E09002EDF0E49002EEF022F5839A
:102C9300E58229F582E43583F583E493FF9002CB43
:102CA300E0FDED7004AC078003EFF4FC122EF95045
:102CB300107F78122D2C122E0A7F40122DFF122F17
:102CC300BC229002B7EFF0E4FAEAC394087480944C
:102CD300805022EA24B0122E48E4F9E9C3948074A8
:102CE300809480500D9002B7E0FFE4FD122CA509FB
:102CF30080E90A80D4229002DFE06428702A9002DF
:102D0300DEE07024120D4E50197B017A0279E11234
:102D13002AF39002E6EFF07B017A0279E07D20123C
:102D230023D39002DE7404F022AD07C293122F3630
:102D3300E4FBEBC3940874809480501CED5480C46E
:102D4300131313540124FF9294ED25E0FD122F2D4C
:102D5300C293122F360B80DA2253B1BF53B2BF5343
:102D6300B17F53B27F759850438920438780438E48
:102D73001053C4DFC28E758D97D28E43B71043B8FC
:102D830010D2AC22A2AF9204C2AF75C7AA75C755C1
:102D9300439620A20492AFE4F595A2AF9204C2AF8A
:102DA30075C7AA75C755439720A20492AF22E49032
:102DB30002B6F0122F137F647E001200039002B656
:102DC300741CF0120F6EC206120735122CF9122B67
:102DD300451215D080F2C285C291122BDC9002D02D
:102DE300E0FF14F0EF60127FFF122BDCEF1205A956
:102DF300740129F9E43AFA80E4D29122122D2C12BB
:102E03002E0AAF04122D2C7D50C293122F36D2946A
:102E1300122F2D309407DDFB122FBCC322C293D394
:102E2300229002C7E0FFA3E0FDAA07ED24B0FF1242
:102E33002E53EA54F0C4540F4410FF122E53EA5495
:102E43000FFF022E53FF122E537F10122E53E4FF57
:102E5300AC07122EF950107F78122D2C122E0AE493
:102E6300FF122DFF122FBC22EF1FAA0670011E4A6C
:102E730060147C047DD8D3ED9400EC940040E9ED1C
:102E83001D70F31C80F0229002C4EFF0A9057F01AE
:102E93007E00AD0119ED600C9002C4E0FD7C0012D0
:102EA30005DD80EE2253B3DF53B4DF43E90143E989
:102EB3004043EA2053EBDF53F7FD43EF02439B020A
:102EC30022D28CEF4E6012758CFE758A20308DFDF8
:102ED300C28DEF1F70ED1E80EAC28C22E4F5B1F5BE
:102EE300B2F5B3F5B4F5ACF5AD53B3FB43B404534A
:102EF300B1DF53B2DF22D293D294122F3620940241
:102F0300C322C294122F36309402C322C293D32217
:102F1300C2AF122FDF122F46122F6F122D5C122E0B
:102F2300A8122757122639D2AF227F017E00122F13
:102F33003AD2937F017E00EF4E6007EF1F70F81EB9
:102F430080F52275C40475C63C75C5B043FF0253B2
:102F5300FEFD439C0243C40822120563FF600C126A
:102F63002FD0740129F9E43AFA80EE225389FD4304
:102F730089015389F7438E08758CFE758A2022D206
:102F8300857F0A7E00EF4E6007EF1F70F81E80F505
:102F930022E4FEC285C291122BDC7FFF122BDCD20E
:102FA300912243B30843B40843B31043B41022E45B
:102FB300FF3098FDAF99C29822C293C294122F2D6D
:102FC300D29422C2917FE1122BDCD291228F9930CD
:102FD30099FDC29922C285D291C29022122D8702F5
:102FE3002EDF4D6F6E2E2000547565732E005765CE
:102FF300642E2000546875722E004672692E2000DC
:103003005361742E200053756E2E20004C6F616443
:10301300696E670025004745542032003C7EFFFF60
:10302300FFFF7E3C7EFFFFFFFFFF7E3CFFFFFFFFB6
:10303300FFFF7E3C0000183C3C1800003C66C38147
:1030430081C3663C070507003E4141410000000083
:1030530000000000F808080808080808080808081D
:103063000808F8C01F1010101010101010101010C6
:1030730010101F03F808E8E80808080808080808FB
:103083000808F8C01F101717101010101010101098
:1030930010101F03F808E8E808E8E808080808081B
:1030A3000808F8C01F10171710171710101010106A
:1030B30010101F03F808E8E808E8E808E8E808083B
:1030C3000808F8C01F10171710171710171710103C
:1030D30010101F03F808E8E808E8E808E8E808E83B
:1030E300E808F8C01F101717101717101717101735
:1030F30017101F0300000000204080FC88502000B0
:1031030000000000000000000201001F080502008B
:103113000000000000000000008000C000E000F09C
:1031230000F80000000E000F000F000F000F000F4B
:10313300000F0000000000000000000C142444FCF9
:103143004424140C00000000000000000000001FD5
:103153000000000000201088442424242424244454
:10316300881020000000000000020119190102006C
:10317300000000000000008040202020202020408C
:103183008000000000000000000201191901020084
:10319300000000000000000000000000000000002C
:1031A30000000000000000000002011919010200E4
:1031B300000000000000000000000000000000000C
:1031C30000000000000000000000001818000000CC
:1031D30000000000060A1222FE22120A06008000E6
:1031E300E000F800000000001F0018001E001F0090
:1031F3001F001F002010906000804020F00000E0BE
:103203001010102006050404000501010701000346
:10321300040505030000000000008080000000009A
:1032230030703000000000808000000000000000CB
:10323300000000000000006060606103F9FC9EC6AE
:10324300C7E767666E7CF9C3E1E0606000000000D9
:103253000000000000000070FCFE070703030301E9
:10326300000000000000000103030303078EFEF8C3
:103273000000000000000000010307070606060621
:103283000E0C1C1C1C1C0C0E060606060703010074
:10329300000000000000000000000000808080C0EB
:1032A300E06070707070E0E0C0808080000000001B
:1032B3000000000000000000FCFE8703030303017D
:1032C3000000000000000000010303030387FEFC6D
:1032D30000000000000000000001030303C3F3C368
:1032E3000736F8FCCE01C7F7C3030303030301004A
:1032F30000000000000000000000000000000100CA
:1033030008070301000000010000000000000000A6
:1033130000000000000000000000000000000000AA
:10332300000000000000000000000000000000009A
:103333000000000000000000C0E0703818181818E2
:103343003870E0C0E07038181818183870E0C00002
:10335300000000000000000003070E1C18181818D6
:103363001C0E0703070E1C181818181C0E07030061
:10337300000000000000000000000000000000004A
:10338300000000000000000000000000000000003A
:10339300000000000000000000000080800000002A
:1033A300000000F0F000000000000080800000003A
:1033B30000000000000000008080808103C7F2F855
:1033C3003C1C0E0E0E0E1C3CF8F2C703818080805D
:1033D300000000000000000001010181C0E34F1F55
:1033E3003C7870707070783C1F4FE3C0810101011D
:1033F30000000000000000000000000101000000C8
:103403000000000F0F000000000000010100000099
:1034130000000000000000000000000000000000A9
:103423000000000000000000000000000000000099
:103433000000000000000000000044EEEEEEEEEE9F
:10344300EEEEEEEEEEEEEEEEEEEEEEEEEE4400001F
:103453000000000000000000000044EEEEEEEEEE7F
:10346300EEEEEEEEEEEEEEEEEEEEEEEEEE440000FF
:103473000000000000000000000000000000000049
:103483000000000000000000000000000000000039
:1034930000000000000000000000000000000080A9
:1034A300C0C060606060C0C0800000000000000019
:1034B3000000000000000070F8FC0E060303030187
:1034C300000000000000000001030303060EFCF8E7
:1034D300700000000000000000010306C6E6F6C607
:1034E3000C0C181818180C0CC6F6E6C606030100D7
:1034F30000000000000000000000000000010100C7
:1035030000000C1F1E0C0000000101000000000061
:1035130000000000000000000000000000000000A8
:103523000080E08000000000000080808080800038
:1035330000000000000000000000000000C0603830
:103543000E0300030E3860C000002020AAAAFF006B
:103553000000000000000000000000007FC3BDFF6A
:10356300FFFEFEFCF8F8F8FD7F000808AAAAFF009A
:103573000000000000000000000000000000010344
:103583000707070707030100000002020202030006
:10359300000000000000000000000000000000C068
:1035A300602060C000000000000000000000000078
:1035B300000000000000000000000000000000FF09
:1035C30000F000FF5555110000000000000000004E
:1035D30000000000000000000000000078FC8633BB
:1035E30078FF783386FC78000000000000000000BC
:1035F30000000000000000000000000000000103C4
:1036030006060603010000000000000000000000A1
:1036130000000000000000000000000000000000A7
:103623000000000000000000000000000000000097
:10363300000000000000FE0C38E080000000FE00E7
:1036430000000000C0701E020080F01C061CF08009
:103653000000000000003F00000001030E183F00BF
:1036630000203C07010000301E0302020202020395
:103673001E300000000000000000000000000000F9
:103683000000000000000000000000000000000037
:103693000000000000C0802060E0E0E0E0E0E060C7
:1036A3002080C000003F7F3F0000000000000000BA
:1036B3003F7F3F0000FEFF7E00808080808080008F
:1036C3007EFFFE0000010002030303030303030361
:1036D30002000100000000000000000000000000E4
:1036E3000080E00000000000000000000000000077
:1036F3003F7F3F00000000000000000000000000CA
:103703007EFFFE000000000000000000000000003B
:103713000000030000002060E0E0E0E0E0E0E060A3
:103723002080C0000000000080C0C0C0C0C0C080B6
:103733003F7F3F0000FEFF7E008181818181818088
:10374300000000000001000203030303030303035B
:103753000302000000002060E0E0E0E0E0E0E06061
:103763002080C00000000080C0C0C0C0C0C0C080B6
:103773003F7F3F00000000008181818181818100C2
:103783007EFFFE000000020303030303030303039E
:103793000200010000C080000000000000000000E3
:1037A3000080C000003F7F3F80C0C0C0C0C0C08059
:1037B3003F7F3F0000000000000101010101010003
:1037C300FEFFFE00000000000000000000000000FB
:1037D3000001030000C0802060E0E0E0E0E0E0E002
:1037E30060200000003F7F3F80C0C0C0C0C0C080D9
:1037F3000000000000000000808181818181810040
:103803007EFFFE000000020303030303030303031D
:103813000200010000C0802060E0E0E0E0E0E0E0C2
:1038230060200000003F7F3F80C0C0C0C0C0C08098
:103833000000000000FEFF7E008181818181810004
:103843007EFFFE00000100020303030303030303DF
:10385300020001000000002060E0E0E0E0E0E06042
:103863002080C000000000000000000000000000F5
:103873003F7F3F0000000000000000000000000048
:10388300FEFFFE000000000000000000000000003A
:103893000001030000C0802060E0E0E0E0E0E060C1
:1038A3002080C000003F7F3F80C0C0C0C0C0C08038
:1038B3003F7F3F0000FEFF7E008181818181810087
:1038C3007EFFFE000001000203030303030303035F
:1038D3000200010000C0802060E0E0E0E0E0E06082
:1038E3002080C000003F7F3F80C0C0C0C0C0C080F8
:1038F3003F7F3F0000000000808181818181810042
:103903007EFFFE000000020303030303030303031C
:1039130002000100000000C0C0C000000000000061
:10392300000000000000000303030000000000008B
:1039330000000000000000E0E0E0000000000000E4
:103943000000000000000001010100000000000071
:10395300000000000080C0E0E0F0707070707070D4
:103963007070707070707070707070707070707054
:103973007070707070707070707070707070707044
:103983007070707070707070707070707070707034
:10399300707070707070707070707070F0E0E0C074
:1039A30080007EFFFFC30000000000000000000055
:1039B3000000000000000000000000000000000004
:1039C30000000000000000000000000000000000F4
:1039D30000000000000000000000000000000000E4
:1039E300000000000000000000000000C3FFFF7E95
:1039F30000010307070F0E0E0E0E0E0E0E0E0E0E17
:103A03000E0E0E0E0E0E0E0E0E0E0E0E0E0E0E0ED3
:103A13000E0E0E0E0E0E0E0E0E0E0E0E0E0E0E0EC3
:103A23000E0E0E0E0E0E0E0E0E0E0E0E0E0E0E0EB3
:103A33000E0E0E0E0E0E0E0E0F07070301000000F2
:103A4300000000000000002F000000000700070036
:103A530000147F147F1400242A7F2A120062640852
:103A630013230036495522500000050300000000CF
:103A73001C224100000041221C000014083E0814CF
:103A83000008083E0808000000A0600000080808BD
:103A93000808000060600000002010080402003ED7
:103AA3005149453E0000427F400000426151494672
:103AB300002141454B31001814127F100027454562
:103AC3004539003C4A494930000171090503003674
:103AD3004949493600064949291E00003636000087
:103AE300000056360000000814224100001414148C
:103AF3001414000041221408000201510906003287
:103B03004959513E007C1211127C007F49494936C4
:103B1300003E41414122007F4141221C007F49492F
:103B23004941007F09090901003E4149497A007F63
:103B33000808087F0000417F4100002040413F0109
:103B4300007F08142241007F40404040007F020C68
:103B5300027F007F0408107F003E4141413E007F09
:103B630009090906003E4151215E007F09192946D2
:103B73000046494949310001017F0101003F4040AE
:103B8300403F001F2040201F003F4038403F00635C
:103B9300140814630007087008070061514945437E
:103BA30000007F41410000552A552A55000041413C
:103BB3007F00000402010204004040404040000036
:103BC30001020400002054545478007F48444438D0
:103BD30000384444442000384444487F0038545457
:103BE300541800087E0901020018A4A4A47C007FD5
:103BF300080404780000447D4000004080847D0078
:103C0300007F102844000000417F4000007C04181E
:103C13000478007C0804047800384444443800FCE9
:103C2300242424180018242418FC007C0804040805
:103C330000485454542000043F444020003C40407A
:103C4300207C001C2040201C003C4030403C0044B1
:103C530028102844001CA0A0A07C004464544C44B9
:103C630014141414141400000000000000000000D9
:103C7300000000000000000000F800000000000049
:103C830000333000000000100C06100C060000008A
:103C930000000000000040C07840C0784000043FAE
:103CA30004043F040400007088FC0830000000187E
:103CB30020FF211E0000F008F000E01800000021A2
:103CC3001C031E211E0000F00888700000001E2146
:103CD30023241927211010160E00000000000000F5
:103CE300000000000000000000E0180402000000D3
:103CF30000071820400000020418E0000000004004
:103D0300201807000000404080F08040400002027D
:103D1300010F01020200000000F000000000010199
:103D2300011F01010100000000000000000080B03D
:103D3300700000000000000000000000000000010F
:103D4300010101010101000000000000000000303A
:103D530030000000000000000000806018040060D4
:103D630018060100000000E010080810E000000F32
:103D7300102020100F00001010F800000000002099
:103D8300203F2020000000700808088870000030E1
:103D93002824222130000030088888483000001889
:103DA300202020110E000000C02010F800000007A2
:103DB3000424243F240000F8088888080800001918
:103DC300212020110E0000E0108888180000000F49
:103DD300112020110E0000380808C8380800000020
:103DE300003F000000000070880808887000001C75
:103DF300222121221C0000E010080810E00000002E
:103E0300312222110F00000000C0C000000000009A
:103E130000303000000000000080000000000000BF
:103E230080600000000000008040201008000001B6
:103E33000204081020004040404040404000040479
:103E43000404040404000008102040800000002043
:103E5300100804020100007048080808F000000080
:103E6300003036010000C030C828E810E000071811
:103E7300272423140B000000C038E0000000203C7E
:103E830023020227382008F8888888700000203F22
:103E9300202020110E00C030080808083800071839
:103EA30020202010080008F808080810E000203F30
:103EB300202020100F0008F88888E8081000203F11
:103EC30020202320180008F88888E8081000203FE5
:103ED300200003000000C03008080838000007185D
:103EE3002020221E020008F808000008F808203FDE
:103EF300210101213F20000808F8080800000020E4
:103F0300203F2020000000000808F8080800C080B7
:103F130080807F00000008F888C028180800203F30
:103F230020012638200008F8080000000000203F88
:103F330020202020300008F8F800F8F80800203F7F
:103F4300003F003F200008F830C00008F808203F79
:103F5300200007183F00E01008080810E0000F10C9
:103F6300202020100F0008F808080808F000203F60
:103F7300210101010000E01008080810E0000F18FB
:103F8300242438504F0008F8888888887000203F20
:103F93002000030C3020007088080808380000381F
:103FA300202121221C00180808F808081800000026
:103FB300203F2000000008F808000008F808001F50
:103FC300202020201F000878880000C8380800003F
:103FD30007380E010000F80800F80008F800033C59
:103FE3000700073C03000818688080681808203021
:103FF3002C03032C30200838C800C8380800000000
:10400300203F2000000010080808C83808002038A6
:10401300262120201800000000FE020202000000FA
:10402300007F40404000000C30C000000000000052
:1040330000010638C00000020202FE00000000403A
:1040430040407F0000000000040202020400000060
:10405300000000000000000000000000000080805D
:104063008080808080800002020400000000000045
:104073000000000000000000808080800000001924
:10408300242222223F2008F8008080000000003F05
:10409300112020110E000000008080800000000E1F
:1040A300112020201100000000808088F800000EFD
:1040B300112020103F200000808080800000001F1E
:1040C300222222221300008080F088888818002092
:1040D300203F202000000000808080808000006B53
:1040E30094949493600008F8008080800000203F3F
:1040F300210000203F20008098980000000000204D
:10410300203F20200000000000809898000000C09D
:104113008080807F000008F8000080808000203FBE
:1041230024022D302000000808F8000000000020C1
:10413300203F202000008080808080808000203FFE
:1041430020003F20003F8080008080800000203FCF
:10415300210000203F200000808080800000001F9D
:10416300202020201F00808000808000000080FF2E
:10417300A12020110E000000008080808000000E2E
:10418300112020A0FF80808080008080800020207C
:104193003F212000010000008080808080000033E8
:1041A300242424241900008080E080800000000083
:1041B300001F202000008080000000808000001F7E
:1041C300202020103F20808080000080808000011C
:1041D3000E300806010080800080008080800F3050
:1041E3000C030C300F0000808000808080000020D2
:1041F300312E0E31200080808000008080808081FD
:104203008E7018060100008080808080800000216D
:10421300302C2221300000000000807C02020000CC
:104223000000003F404000000000FF0000000000CD
:104233000000FF0000000002027C8000000000403C
:10424300403F0000000000060101020204040000D8
:10425300000000000000506C6561736520776169A0
:10426300742E2E00255248002F004775616E677A21
:10427300686F7500474554203200112233445500BE
:0E4283000000000034431010013443101002FC
:00000001FF
